{
  "_format": "hh-sol-artifact-1",
  "contractName": "Contract",
  "sourceName": "contracts/Contract.sol",
  "abi": [
    {
      "inputs": [],
      "stateMutability": "nonpayable",
      "type": "constructor"
    },
    {
      "inputs": [],
      "name": "count",
      "outputs": [
        {
          "internalType": "uint256",
          "name": "",
          "type": "uint256"
        }
      ],
      "stateMutability": "view",
      "type": "function"
    },
    {
      "inputs": [],
      "name": "counter",
      "outputs": [
        {
          "internalType": "uint256",
          "name": "",
          "type": "uint256"
        }
      ],
      "stateMutability": "nonpayable",
      "type": "function"
    },
    {
      "inputs": [],
      "name": "owner",
      "outputs": [
        {
          "internalType": "address",
          "name": "",
          "type": "address"
        }
      ],
      "stateMutability": "view",
      "type": "function"
    }
  ],
  "bytecode": "0x608060405234801561001057600080fd5b50336000806101000a81548173ffffffffffffffffffffffffffffffffffffffff021916908373ffffffffffffffffffffffffffffffffffffffff160217905550610229806100606000396000f3fe608060405234801561001057600080fd5b50600436106100415760003560e01c806306661abd1461004657806361bc221a146100645780638da5cb5b14610082575b600080fd5b61004e6100a0565b60405161005b9190610105565b60405180910390f35b61006c6100a6565b6040516100799190610105565b60405180910390f35b61008a6100c8565b6040516100979190610161565b60405180910390f35b60015481565b6000600160008154809291906100bb906101ab565b9190505550600154905090565b60008054906101000a900473ffffffffffffffffffffffffffffffffffffffff1681565b6000819050919050565b6100ff816100ec565b82525050565b600060208201905061011a60008301846100f6565b92915050565b600073ffffffffffffffffffffffffffffffffffffffff82169050919050565b600061014b82610120565b9050919050565b61015b81610140565b82525050565b60006020820190506101766000830184610152565b92915050565b7f4e487b7100000000000000000000000000000000000000000000000000000000600052601160045260246000fd5b60006101b6826100ec565b91507fffffffffffffffffffffffffffffffffffffffffffffffffffffffffffffffff82036101e8576101e761017c565b5b60018201905091905056fea264697066735822122028f495da62366772c6dc702b49ac5f505d977f50a2df7352f6b2a73d33eae0fb64736f6c63430008110033",
  "linkReferences": {},
  "deployedLinkReferences": {}
}