{
  "_format": "hh-sol-artifact-1",
  "contractName": "ElectionContract",
  "sourceName": "contracts/ElectionContract.sol",
  "abi": [
    {
      "inputs": [],
      "stateMutability": "nonpayable",
      "type": "constructor"
    },
    {
      "anonymous": false,
      "inputs": [
        {
          "indexed": true,
          "internalType": "uint256",
          "name": "electionId",
          "type": "uint256"
        },
        {
          "indexed": true,
          "internalType": "uint256",
          "name": "candidateId",
          "type": "uint256"
        },
        {
          "indexed": false,
          "internalType": "string",
          "name": "name",
          "type": "string"
        }
      ],
      "name": "CandidateAdded",
      "type": "event"
    },
    {
      "anonymous": false,
      "inputs": [
        {
          "indexed": true,
          "internalType": "uint256",
          "name": "electionId",
          "type": "uint256"
        },
        {
          "indexed": false,
          "internalType": "string",
          "name": "title",
          "type": "string"
        },
        {
          "indexed": false,
          "internalType": "uint256",
          "name": "startDate",
          "type": "uint256"
        },
        {
          "indexed": false,
          "internalType": "uint256",
          "name": "endDate",
          "type": "uint256"
        }
      ],
      "name": "ElectionCreated",
      "type": "event"
    },
    {
      "anonymous": false,
      "inputs": [
        {
          "indexed": true,
          "internalType": "uint256",
          "name": "electionId",
          "type": "uint256"
        },
        {
          "indexed": true,
          "internalType": "uint256",
          "name": "candidateId",
          "type": "uint256"
        },
        {
          "indexed": true,
          "internalType": "address",
          "name": "voter",
          "type": "address"
        }
      ],
      "name": "Voted",
      "type": "event"
    },
    {
      "inputs": [
        {
          "internalType": "uint256",
          "name": "_electionId",
          "type": "uint256"
        },
        {
          "internalType": "string",
          "name": "_name",
          "type": "string"
        }
      ],
      "name": "addCandidate",
      "outputs": [],
      "stateMutability": "nonpayable",
      "type": "function"
    },
    {
      "inputs": [],
      "name": "admin",
      "outputs": [
        {
          "internalType": "address",
          "name": "",
          "type": "address"
        }
      ],
      "stateMutability": "view",
      "type": "function"
    },
    {
      "inputs": [
        {
          "internalType": "uint256",
          "name": "_electionId",
          "type": "uint256"
        }
      ],
      "name": "closeElection",
      "outputs": [],
      "stateMutability": "nonpayable",
      "type": "function"
    },
    {
      "inputs": [
        {
          "internalType": "string",
          "name": "_title",
          "type": "string"
        },
        {
          "internalType": "uint256",
          "name": "_startDate",
          "type": "uint256"
        },
        {
          "internalType": "uint256",
          "name": "_endDate",
          "type": "uint256"
        }
      ],
      "name": "createElection",
      "outputs": [],
      "stateMutability": "nonpayable",
      "type": "function"
    },
    {
      "inputs": [],
      "name": "electionCount",
      "outputs": [
        {
          "internalType": "uint256",
          "name": "",
          "type": "uint256"
        }
      ],
      "stateMutability": "view",
      "type": "function"
    },
    {
      "inputs": [
        {
          "internalType": "uint256",
          "name": "",
          "type": "uint256"
        }
      ],
      "name": "elections",
      "outputs": [
        {
          "internalType": "string",
          "name": "title",
          "type": "string"
        },
        {
          "internalType": "uint256",
          "name": "startDate",
          "type": "uint256"
        },
        {
          "internalType": "uint256",
          "name": "endDate",
          "type": "uint256"
        },
        {
          "internalType": "bool",
          "name": "isActive",
          "type": "bool"
        },
        {
          "internalType": "uint256",
          "name": "candidateCount",
          "type": "uint256"
        },
        {
          "internalType": "uint256",
          "name": "totalVotes",
          "type": "uint256"
        }
      ],
      "stateMutability": "view",
      "type": "function"
    },
    {
      "inputs": [
        {
          "internalType": "uint256",
          "name": "_electionId",
          "type": "uint256"
        }
      ],
      "name": "getElectionResults",
      "outputs": [
        {
          "internalType": "string",
          "name": "title",
          "type": "string"
        },
        {
          "internalType": "uint256",
          "name": "totalVotes",
          "type": "uint256"
        }
      ],
      "stateMutability": "view",
      "type": "function"
    },
    {
      "inputs": [
        {
          "internalType": "uint256",
          "name": "_electionId",
          "type": "uint256"
        }
      ],
      "name": "isElectionActive",
      "outputs": [
        {
          "internalType": "bool",
          "name": "",
          "type": "bool"
        }
      ],
      "stateMutability": "view",
      "type": "function"
    },
    {
      "inputs": [
        {
          "internalType": "uint256",
          "name": "_electionId",
          "type": "uint256"
        },
        {
          "internalType": "uint256",
          "name": "_candidateId",
          "type": "uint256"
        }
      ],
      "name": "vote",
      "outputs": [],
      "stateMutability": "nonpayable",
      "type": "function"
    }
  ],
  "bytecode": "0x608060405234801561001057600080fd5b50336000806101000a81548173ffffffffffffffffffffffffffffffffffffffff021916908373ffffffffffffffffffffffffffffffffffffffff1602179055506115fa806100606000396000f3fe608060405234801561001057600080fd5b50600436106100935760003560e01c8063997d283011610066578063997d283014610135578063b384abef14610153578063e8ededa61461016f578063f49a7a17146101a0578063f851a440146101bc57610093565b806309e33d07146100985780631750a3d0146100b45780635e6fef01146100d05780636ee17f6f14610105575b600080fd5b6100b260048036038101906100ad9190610aea565b6101da565b005b6100ce60048036038101906100c99190610c5d565b6102ff565b005b6100ea60048036038101906100e59190610aea565b6104b7565b6040516100fc96959493929190610d62565b60405180910390f35b61011f600480360381019061011a9190610aea565b610588565b60405161012c9190610dca565b60405180910390f35b61013d6105b5565b60405161014a9190610de5565b60405180910390f35b61016d60048036038101906101689190610e00565b6105bb565b005b61018960048036038101906101849190610aea565b610840565b604051610197929190610e40565b60405180910390f35b6101ba60048036038101906101b59190610e70565b6108f6565b005b6101c4610a7c565b6040516101d19190610f20565b60405180910390f35b60008054906101000a900473ffffffffffffffffffffffffffffffffffffffff1673ffffffffffffffffffffffffffffffffffffffff163373ffffffffffffffffffffffffffffffffffffffff1614610268576040517f08c379a000000000000000000000000000000000000000000000000000000000815260040161025f90610fad565b60405180910390fd5b806001600082815260200190815260200160002060030160009054906101000a900460ff166102cc576040517f08c379a00000000000000000000000000000000000000000000000000000000081526004016102c390611019565b60405180910390fd5b60006001600084815260200190815260200160002060030160006101000a81548160ff0219169083151502179055505050565b60008054906101000a900473ffffffffffffffffffffffffffffffffffffffff1673ffffffffffffffffffffffffffffffffffffffff163373ffffffffffffffffffffffffffffffffffffffff161461038d576040517f08c379a000000000000000000000000000000000000000000000000000000000815260040161038490610fad565b60405180910390fd5b816001600082815260200190815260200160002060030160009054906101000a900460ff166103f1576040517f08c379a00000000000000000000000000000000000000000000000000000000081526004016103e890611019565b60405180910390fd5b600060016000858152602001908152602001600020905080600501600081548092919061041d90611068565b91905055506040518060400160405280848152602001600081525081600401600083600501548152602001908152602001600020600082015181600001908161046691906112bc565b50602082015181600101559050508060050154847fed8911b3df733b7d5f75724158e54478ea12e30f49c9d31b5261879f5b76586f856040516104a9919061138e565b60405180910390a350505050565b60016020528060005260406000206000915090508060000180546104da906110df565b80601f0160208091040260200160405190810160405280929190818152602001828054610506906110df565b80156105535780601f1061052857610100808354040283529160200191610553565b820191906000526020600020905b81548152906001019060200180831161053657829003601f168201915b5050505050908060010154908060020154908060030160009054906101000a900460ff16908060050154908060070154905086565b60006001600083815260200190815260200160002060030160009054906101000a900460ff169050919050565b60025481565b816001600082815260200190815260200160002060030160009054906101000a900460ff1661061f576040517f08c379a000000000000000000000000000000000000000000000000000000000815260040161061690611019565b60405180910390fd5b6000600160008581526020019081526020016000209050806001015442101561067d576040517f08c379a0000000000000000000000000000000000000000000000000000000008152600401610674906113fc565b60405180910390fd5b80600201544211156106c4576040517f08c379a00000000000000000000000000000000000000000000000000000000081526004016106bb90611468565b60405180910390fd5b8060060160003373ffffffffffffffffffffffffffffffffffffffff1673ffffffffffffffffffffffffffffffffffffffff16815260200190815260200160002060009054906101000a900460ff1615610753576040517f08c379a000000000000000000000000000000000000000000000000000000000815260040161074a906114d4565b60405180910390fd5b60018160060160003373ffffffffffffffffffffffffffffffffffffffff1673ffffffffffffffffffffffffffffffffffffffff16815260200190815260200160002060006101000a81548160ff02191690831515021790555080600401600084815260200190815260200160002060010160008154809291906107d690611068565b91905055508060070160008154809291906107f090611068565b91905055503373ffffffffffffffffffffffffffffffffffffffff1683857fd91ecafccf238642dccd41161308b3eebe62a12bc5819daf5164780c221ec95b60405160405180910390a450505050565b6060600080600160008581526020019081526020016000209050806000018054610869906110df565b80601f0160208091040260200160405190810160405280929190818152602001828054610895906110df565b80156108e25780601f106108b7576101008083540402835291602001916108e2565b820191906000526020600020905b8154815290600101906020018083116108c557829003601f168201915b505050505092508060070154915050915091565b60008054906101000a900473ffffffffffffffffffffffffffffffffffffffff1673ffffffffffffffffffffffffffffffffffffffff163373ffffffffffffffffffffffffffffffffffffffff1614610984576040517f08c379a000000000000000000000000000000000000000000000000000000000815260040161097b90610fad565b60405180910390fd5b8082106109c6576040517f08c379a00000000000000000000000000000000000000000000000000000000081526004016109bd90611566565b60405180910390fd5b600260008154809291906109d990611068565b91905055506000600160006002548152602001908152602001600020905083816000019081610a0891906112bc565b5082816001018190555081816002018190555060018160030160006101000a81548160ff0219169083151502179055506002547fe7a0aae5d733e07e246dea86213a1ac1b0aa8554bde889bb75c12752f44e53d9858585604051610a6e93929190611586565b60405180910390a250505050565b60008054906101000a900473ffffffffffffffffffffffffffffffffffffffff1681565b6000604051905090565b600080fd5b600080fd5b6000819050919050565b610ac781610ab4565b8114610ad257600080fd5b50565b600081359050610ae481610abe565b92915050565b600060208284031215610b0057610aff610aaa565b5b6000610b0e84828501610ad5565b91505092915050565b600080fd5b600080fd5b6000601f19601f8301169050919050565b7f4e487b7100000000000000000000000000000000000000000000000000000000600052604160045260246000fd5b610b6a82610b21565b810181811067ffffffffffffffff82111715610b8957610b88610b32565b5b80604052505050565b6000610b9c610aa0565b9050610ba88282610b61565b919050565b600067ffffffffffffffff821115610bc857610bc7610b32565b5b610bd182610b21565b9050602081019050919050565b82818337600083830152505050565b6000610c00610bfb84610bad565b610b92565b905082815260208101848484011115610c1c57610c1b610b1c565b5b610c27848285610bde565b509392505050565b600082601f830112610c4457610c43610b17565b5b8135610c54848260208601610bed565b91505092915050565b60008060408385031215610c7457610c73610aaa565b5b6000610c8285828601610ad5565b925050602083013567ffffffffffffffff811115610ca357610ca2610aaf565b5b610caf85828601610c2f565b9150509250929050565b600081519050919050565b600082825260208201905092915050565b60005b83811015610cf3578082015181840152602081019050610cd8565b60008484015250505050565b6000610d0a82610cb9565b610d148185610cc4565b9350610d24818560208601610cd5565b610d2d81610b21565b840191505092915050565b610d4181610ab4565b82525050565b60008115159050919050565b610d5c81610d47565b82525050565b600060c0820190508181036000830152610d7c8189610cff565b9050610d8b6020830188610d38565b610d986040830187610d38565b610da56060830186610d53565b610db26080830185610d38565b610dbf60a0830184610d38565b979650505050505050565b6000602082019050610ddf6000830184610d53565b92915050565b6000602082019050610dfa6000830184610d38565b92915050565b60008060408385031215610e1757610e16610aaa565b5b6000610e2585828601610ad5565b9250506020610e3685828601610ad5565b9150509250929050565b60006040820190508181036000830152610e5a8185610cff565b9050610e696020830184610d38565b9392505050565b600080600060608486031215610e8957610e88610aaa565b5b600084013567ffffffffffffffff811115610ea757610ea6610aaf565b5b610eb386828701610c2f565b9350506020610ec486828701610ad5565b9250506040610ed586828701610ad5565b9150509250925092565b600073ffffffffffffffffffffffffffffffffffffffff82169050919050565b6000610f0a82610edf565b9050919050565b610f1a81610eff565b82525050565b6000602082019050610f356000830184610f11565b92915050565b7f4f6e6c792061646d696e2063616e20706572666f726d2074686973206163746960008201527f6f6e000000000000000000000000000000000000000000000000000000000000602082015250565b6000610f97602283610cc4565b9150610fa282610f3b565b604082019050919050565b60006020820190508181036000830152610fc681610f8a565b9050919050565b7f456c656374696f6e206973206e6f742061637469766500000000000000000000600082015250565b6000611003601683610cc4565b915061100e82610fcd565b602082019050919050565b6000602082019050818103600083015261103281610ff6565b9050919050565b7f4e487b7100000000000000000000000000000000000000000000000000000000600052601160045260246000fd5b600061107382610ab4565b91507fffffffffffffffffffffffffffffffffffffffffffffffffffffffffffffffff82036110a5576110a4611039565b5b600182019050919050565b7f4e487b7100000000000000000000000000000000000000000000000000000000600052602260045260246000fd5b600060028204905060018216806110f757607f821691505b60208210810361110a576111096110b0565b5b50919050565b60008190508160005260206000209050919050565b60006020601f8301049050919050565b600082821b905092915050565b6000600883026111727fffffffffffffffffffffffffffffffffffffffffffffffffffffffffffffffff82611135565b61117c8683611135565b95508019841693508086168417925050509392505050565b6000819050919050565b60006111b96111b46111af84610ab4565b611194565b610ab4565b9050919050565b6000819050919050565b6111d38361119e565b6111e76111df826111c0565b848454611142565b825550505050565b600090565b6111fc6111ef565b6112078184846111ca565b505050565b5b8181101561122b576112206000826111f4565b60018101905061120d565b5050565b601f8211156112705761124181611110565b61124a84611125565b81016020851015611259578190505b61126d61126585611125565b83018261120c565b50505b505050565b600082821c905092915050565b600061129360001984600802611275565b1980831691505092915050565b60006112ac8383611282565b9150826002028217905092915050565b6112c582610cb9565b67ffffffffffffffff8111156112de576112dd610b32565b5b6112e882546110df565b6112f382828561122f565b600060209050601f8311600181146113265760008415611314578287015190505b61131e85826112a0565b865550611386565b601f19841661133486611110565b60005b8281101561135c57848901518255600182019150602085019450602081019050611337565b868310156113795784890151611375601f891682611282565b8355505b6001600288020188555050505b505050505050565b600060208201905081810360008301526113a88184610cff565b905092915050565b7f566f74696e6720686173206e6f74207374617274656420796574000000000000600082015250565b60006113e6601a83610cc4565b91506113f1826113b0565b602082019050919050565b60006020820190508181036000830152611415816113d9565b9050919050565b7f566f74696e672068617320656e64656400000000000000000000000000000000600082015250565b6000611452601083610cc4565b915061145d8261141c565b602082019050919050565b6000602082019050818103600083015261148181611445565b9050919050565b7f596f75206861766520616c726561647920766f74656400000000000000000000600082015250565b60006114be601683610cc4565b91506114c982611488565b602082019050919050565b600060208201905081810360008301526114ed816114b1565b9050919050565b7f53746172742064617465206d757374206265206265666f726520656e6420646160008201527f7465000000000000000000000000000000000000000000000000000000000000602082015250565b6000611550602283610cc4565b915061155b826114f4565b604082019050919050565b6000602082019050818103600083015261157f81611543565b9050919050565b600060608201905081810360008301526115a08186610cff565b90506115af6020830185610d38565b6115bc6040830184610d38565b94935050505056fea2646970667358221220b0c96501c2aef763de9d4174b9e68487ed2ab40e91ef2869a0531301e24d8b3664736f6c63430008110033",
  "linkReferences": {},
  "deployedLinkReferences": {}
}