{
  "_format": "hh-sol-artifact-1",
  "contractName": "Voter",
  "sourceName": "contracts/Voter.sol",
  "abi": [
    {
      "anonymous": false,
      "inputs": [
        {
          "indexed": true,
          "internalType": "address",
          "name": "voter",
          "type": "address"
        },
        {
          "indexed": false,
          "internalType": "string",
          "name": "name",
          "type": "string"
        },
        {
          "indexed": false,
          "internalType": "string",
          "name": "mobile",
          "type": "string"
        },
        {
          "indexed": false,
          "internalType": "string",
          "name": "addressInfo",
          "type": "string"
        },
        {
          "indexed": false,
          "internalType": "string",
          "name": "image",
          "type": "string"
        }
      ],
      "name": "VoterRegistered",
      "type": "event"
    },
    {
      "inputs": [
        {
          "internalType": "address",
          "name": "voterAddress",
          "type": "address"
        }
      ],
      "name": "getVoterDetails",
      "outputs": [
        {
          "internalType": "string",
          "name": "name",
          "type": "string"
        },
        {
          "internalType": "string",
          "name": "mobile",
          "type": "string"
        },
        {
          "internalType": "string",
          "name": "addressInfo",
          "type": "string"
        },
        {
          "internalType": "string",
          "name": "image",
          "type": "string"
        }
      ],
      "stateMutability": "view",
      "type": "function"
    },
    {
      "inputs": [
        {
          "internalType": "string",
          "name": "_name",
          "type": "string"
        },
        {
          "internalType": "string",
          "name": "_mobile",
          "type": "string"
        },
        {
          "internalType": "string",
          "name": "_addressInfo",
          "type": "string"
        },
        {
          "internalType": "string",
          "name": "_image",
          "type": "string"
        }
      ],
      "name": "registerVoter",
      "outputs": [],
      "stateMutability": "nonpayable",
      "type": "function"
    },
    {
      "inputs": [
        {
          "internalType": "address",
          "name": "",
          "type": "address"
        }
      ],
      "name": "voters",
      "outputs": [
        {
          "internalType": "string",
          "name": "name",
          "type": "string"
        },
        {
          "internalType": "string",
          "name": "mobile",
          "type": "string"
        },
        {
          "internalType": "string",
          "name": "addressInfo",
          "type": "string"
        },
        {
          "internalType": "string",
          "name": "image",
          "type": "string"
        },
        {
          "internalType": "bool",
          "name": "registered",
          "type": "bool"
        }
      ],
      "stateMutability": "view",
      "type": "function"
    }
  ],
  "bytecode": "0x608060405234801561001057600080fd5b50610ffd806100206000396000f3fe608060405234801561001057600080fd5b50600436106100415760003560e01c806390b9c86b14610046578063a3ec138d14610062578063ba71bef014610096575b600080fd5b610060600480360381019061005b919061093b565b6100c9565b005b61007c60048036038101906100779190610a70565b610295565b60405161008d959493929190610b37565b60405180910390f35b6100b060048036038101906100ab9190610a70565b6104f8565b6040516100c09493929190610ba6565b60405180910390f35b6000803373ffffffffffffffffffffffffffffffffffffffff1673ffffffffffffffffffffffffffffffffffffffff16815260200190815260200160002060040160009054906101000a900460ff1615610158576040517f08c379a000000000000000000000000000000000000000000000000000000000815260040161014f90610c53565b60405180910390fd5b6040518060a00160405280858152602001848152602001838152602001828152602001600115158152506000803373ffffffffffffffffffffffffffffffffffffffff1673ffffffffffffffffffffffffffffffffffffffff16815260200190815260200160002060008201518160000190816101d59190610e89565b5060208201518160010190816101eb9190610e89565b5060408201518160020190816102019190610e89565b5060608201518160030190816102179190610e89565b5060808201518160040160006101000a81548160ff0219169083151502179055509050503373ffffffffffffffffffffffffffffffffffffffff167f59fa74c646f8dfa28aa1b1b018f1244df0eee4f725cb68a1066bc3c2bfd00500858585856040516102879493929190610ba6565b60405180910390a250505050565b60006020528060005260406000206000915090508060000180546102b890610ca2565b80601f01602080910402602001604051908101604052809291908181526020018280546102e490610ca2565b80156103315780601f1061030657610100808354040283529160200191610331565b820191906000526020600020905b81548152906001019060200180831161031457829003601f168201915b50505050509080600101805461034690610ca2565b80601f016020809104026020016040519081016040528092919081815260200182805461037290610ca2565b80156103bf5780601f10610394576101008083540402835291602001916103bf565b820191906000526020600020905b8154815290600101906020018083116103a257829003601f168201915b5050505050908060020180546103d490610ca2565b80601f016020809104026020016040519081016040528092919081815260200182805461040090610ca2565b801561044d5780601f106104225761010080835404028352916020019161044d565b820191906000526020600020905b81548152906001019060200180831161043057829003601f168201915b50505050509080600301805461046290610ca2565b80601f016020809104026020016040519081016040528092919081815260200182805461048e90610ca2565b80156104db5780601f106104b0576101008083540402835291602001916104db565b820191906000526020600020905b8154815290600101906020018083116104be57829003601f168201915b5050505050908060040160009054906101000a900460ff16905085565b60608060608060008060008773ffffffffffffffffffffffffffffffffffffffff1673ffffffffffffffffffffffffffffffffffffffff16815260200190815260200160002090508060040160009054906101000a900460ff16610591576040517f08c379a000000000000000000000000000000000000000000000000000000000815260040161058890610fa7565b60405180910390fd5b806000018160010182600201836003018380546105ad90610ca2565b80601f01602080910402602001604051908101604052809291908181526020018280546105d990610ca2565b80156106265780601f106105fb57610100808354040283529160200191610626565b820191906000526020600020905b81548152906001019060200180831161060957829003601f168201915b5050505050935082805461063990610ca2565b80601f016020809104026020016040519081016040528092919081815260200182805461066590610ca2565b80156106b25780601f10610687576101008083540402835291602001916106b2565b820191906000526020600020905b81548152906001019060200180831161069557829003601f168201915b505050505092508180546106c590610ca2565b80601f01602080910402602001604051908101604052809291908181526020018280546106f190610ca2565b801561073e5780601f106107135761010080835404028352916020019161073e565b820191906000526020600020905b81548152906001019060200180831161072157829003601f168201915b5050505050915080805461075190610ca2565b80601f016020809104026020016040519081016040528092919081815260200182805461077d90610ca2565b80156107ca5780601f1061079f576101008083540402835291602001916107ca565b820191906000526020600020905b8154815290600101906020018083116107ad57829003601f168201915b505050505090509450945094509450509193509193565b6000604051905090565b600080fd5b600080fd5b600080fd5b600080fd5b6000601f19601f8301169050919050565b7f4e487b7100000000000000000000000000000000000000000000000000000000600052604160045260246000fd5b610848826107ff565b810181811067ffffffffffffffff8211171561086757610866610810565b5b80604052505050565b600061087a6107e1565b9050610886828261083f565b919050565b600067ffffffffffffffff8211156108a6576108a5610810565b5b6108af826107ff565b9050602081019050919050565b82818337600083830152505050565b60006108de6108d98461088b565b610870565b9050828152602081018484840111156108fa576108f96107fa565b5b6109058482856108bc565b509392505050565b600082601f830112610922576109216107f5565b5b81356109328482602086016108cb565b91505092915050565b60008060008060808587031215610955576109546107eb565b5b600085013567ffffffffffffffff811115610973576109726107f0565b5b61097f8782880161090d565b945050602085013567ffffffffffffffff8111156109a05761099f6107f0565b5b6109ac8782880161090d565b935050604085013567ffffffffffffffff8111156109cd576109cc6107f0565b5b6109d98782880161090d565b925050606085013567ffffffffffffffff8111156109fa576109f96107f0565b5b610a068782880161090d565b91505092959194509250565b600073ffffffffffffffffffffffffffffffffffffffff82169050919050565b6000610a3d82610a12565b9050919050565b610a4d81610a32565b8114610a5857600080fd5b50565b600081359050610a6a81610a44565b92915050565b600060208284031215610a8657610a856107eb565b5b6000610a9484828501610a5b565b91505092915050565b600081519050919050565b600082825260208201905092915050565b60005b83811015610ad7578082015181840152602081019050610abc565b60008484015250505050565b6000610aee82610a9d565b610af88185610aa8565b9350610b08818560208601610ab9565b610b11816107ff565b840191505092915050565b60008115159050919050565b610b3181610b1c565b82525050565b600060a0820190508181036000830152610b518188610ae3565b90508181036020830152610b658187610ae3565b90508181036040830152610b798186610ae3565b90508181036060830152610b8d8185610ae3565b9050610b9c6080830184610b28565b9695505050505050565b60006080820190508181036000830152610bc08187610ae3565b90508181036020830152610bd48186610ae3565b90508181036040830152610be88185610ae3565b90508181036060830152610bfc8184610ae3565b905095945050505050565b7f566f74657220616c726561647920726567697374657265640000000000000000600082015250565b6000610c3d601883610aa8565b9150610c4882610c07565b602082019050919050565b60006020820190508181036000830152610c6c81610c30565b9050919050565b7f4e487b7100000000000000000000000000000000000000000000000000000000600052602260045260246000fd5b60006002820490506001821680610cba57607f821691505b602082108103610ccd57610ccc610c73565b5b50919050565b60008190508160005260206000209050919050565b60006020601f8301049050919050565b600082821b905092915050565b600060088302610d357fffffffffffffffffffffffffffffffffffffffffffffffffffffffffffffffff82610cf8565b610d3f8683610cf8565b95508019841693508086168417925050509392505050565b6000819050919050565b6000819050919050565b6000610d86610d81610d7c84610d57565b610d61565b610d57565b9050919050565b6000819050919050565b610da083610d6b565b610db4610dac82610d8d565b848454610d05565b825550505050565b600090565b610dc9610dbc565b610dd4818484610d97565b505050565b5b81811015610df857610ded600082610dc1565b600181019050610dda565b5050565b601f821115610e3d57610e0e81610cd3565b610e1784610ce8565b81016020851015610e26578190505b610e3a610e3285610ce8565b830182610dd9565b50505b505050565b600082821c905092915050565b6000610e6060001984600802610e42565b1980831691505092915050565b6000610e798383610e4f565b9150826002028217905092915050565b610e9282610a9d565b67ffffffffffffffff811115610eab57610eaa610810565b5b610eb58254610ca2565b610ec0828285610dfc565b600060209050601f831160018114610ef35760008415610ee1578287015190505b610eeb8582610e6d565b865550610f53565b601f198416610f0186610cd3565b60005b82811015610f2957848901518255600182019150602085019450602081019050610f04565b86831015610f465784890151610f42601f891682610e4f565b8355505b6001600288020188555050505b505050505050565b7f566f746572206e6f742072656769737465726564000000000000000000000000600082015250565b6000610f91601483610aa8565b9150610f9c82610f5b565b602082019050919050565b60006020820190508181036000830152610fc081610f84565b905091905056fea2646970667358221220ea6da8a1dd53c43c1de1631a18981cd1e5847a9fefe5d779fae096ed1b183da164736f6c63430008110033",
  "linkReferences": {},
  "deployedLinkReferences": {}
}