{"contracts/Crud.sol":{"CRUD":{"abi":[{"inputs":[],"name":"_ids","outputs":[{"internalType":"uint256","name":"_value","type":"uint256"}],"stateMutability":"view","type":"function"},{"inputs":[{"internalType":"uint256","name":"","type":"uint256"}],"name":"array","outputs":[{"internalType":"uint256","name":"id","type":"uint256"},{"internalType":"string","name":"name","type":"string"},{"internalType":"string","name":"email","type":"string"}],"stateMutability":"view","type":"function"},{"inputs":[{"internalType":"string","name":"_name","type":"string"},{"internalType":"string","name":"_email","type":"string"}],"name":"create","outputs":[],"stateMutability":"nonpayable","type":"function"},{"inputs":[{"internalType":"uint256","name":"_id","type":"uint256"}],"name":"deleteData","outputs":[],"stateMutability":"nonpayable","type":"function"},{"inputs":[],"name":"get","outputs":[{"components":[{"internalType":"uint256","name":"id","type":"uint256"},{"internalType":"string","name":"name","type":"string"},{"internalType":"string","name":"email","type":"string"}],"internalType":"struct CRUD.Data[]","name":"","type":"tuple[]"}],"stateMutability":"view","type":"function"},{"inputs":[],"name":"owner","outputs":[{"internalType":"address","name":"","type":"address"}],"stateMutability":"view","type":"function"},{"inputs":[{"internalType":"uint256","name":"_id","type":"uint256"},{"internalType":"string","name":"_name","type":"string"},{"internalType":"string","name":"_email","type":"string"}],"name":"update","outputs":[],"stateMutability":"nonpayable","type":"function"}],"evm":{"bytecode":{"linkReferences":{},"object":"608060405234801561001057600080fd5b50611491806100206000396000f3fe608060405234801561001057600080fd5b506004361061007d5760003560e01c80634fe8b4c11161005b5780634fe8b4c1146100ee5780636d4ce63c1461010a5780638da5cb5b14610128578063f95e0a54146101465761007d565b8063198e2b8a1461008257806338d941931461009e578063479e46a2146100d0575b600080fd5b61009c60048036038101906100979190610a92565b610162565b005b6100b860048036038101906100b39190610b40565b610255565b6040516100c793929190610bfb565b60405180910390f35b6100d861039f565b6040516100e59190610c40565b60405180910390f35b61010860048036038101906101039190610b40565b6103ab565b005b610112610588565b60405161011f9190610dcd565b60405180910390f35b61013061076d565b60405161013d9190610e30565b60405180910390f35b610160600480360381019061015b9190610e4b565b610791565b005b60008054906101000a900473ffffffffffffffffffffffffffffffffffffffff1673ffffffffffffffffffffffffffffffffffffffff163373ffffffffffffffffffffffffffffffffffffffff16146101ba57600080fd5b6101c460016108b7565b600060405180606001604052806101db60016108cd565b8152602001848152602001838152509050600281908060018154018082558091505060019003906000526020600020906003020160009091909190915060008201518160000155602082015181600101908161023791906110e2565b50604082015181600201908161024d91906110e2565b505050505050565b6002818154811061026557600080fd5b906000526020600020906003020160009150905080600001549080600101805461028e90610f05565b80601f01602080910402602001604051908101604052809291908181526020018280546102ba90610f05565b80156103075780601f106102dc57610100808354040283529160200191610307565b820191906000526020600020905b8154815290600101906020018083116102ea57829003601f168201915b50505050509080600201805461031c90610f05565b80601f016020809104026020016040519081016040528092919081815260200182805461034890610f05565b80156103955780601f1061036a57610100808354040283529160200191610395565b820191906000526020600020905b81548152906001019060200180831161037857829003601f168201915b5050505050905083565b60018060000154905081565b60008054906101000a900473ffffffffffffffffffffffffffffffffffffffff1673ffffffffffffffffffffffffffffffffffffffff163373ffffffffffffffffffffffffffffffffffffffff161461040357600080fd5b60028054905081111561044b576040517f08c379a000000000000000000000000000000000000000000000000000000000815260040161044290611200565b60405180910390fd5b600080600090505b60028054905081101561047657809150808061046e9061124f565b915050610453565b5060008190505b600160028054905061048f9190611297565b8110156105305760026001826104a591906112cb565b815481106104b6576104b56112ff565b5b9060005260206000209060030201600282815481106104d8576104d76112ff565b5b906000526020600020906003020160008201548160000155600182018160010190816105049190611344565b50600282018160020190816105199190611344565b5090505080806105289061124f565b91505061047d565b5060028054806105435761054261142c565b5b600190038181906000526020600020906003020160008082016000905560018201600061057091906108db565b60028201600061058091906108db565b505090555050565b606060008054906101000a900473ffffffffffffffffffffffffffffffffffffffff1673ffffffffffffffffffffffffffffffffffffffff163373ffffffffffffffffffffffffffffffffffffffff16146105e257600080fd5b6002805480602002602001604051908101604052809291908181526020016000905b8282101561076457838290600052602060002090600302016040518060600160405290816000820154815260200160018201805461064190610f05565b80601f016020809104026020016040519081016040528092919081815260200182805461066d90610f05565b80156106ba5780601f1061068f576101008083540402835291602001916106ba565b820191906000526020600020905b81548152906001019060200180831161069d57829003601f168201915b505050505081526020016002820180546106d390610f05565b80601f01602080910402602001604051908101604052809291908181526020018280546106ff90610f05565b801561074c5780601f106107215761010080835404028352916020019161074c565b820191906000526020600020905b81548152906001019060200180831161072f57829003601f168201915b50505050508152505081526020019060010190610604565b50505050905090565b60008054906101000a900473ffffffffffffffffffffffffffffffffffffffff1681565b60008054906101000a900473ffffffffffffffffffffffffffffffffffffffff1673ffffffffffffffffffffffffffffffffffffffff163373ffffffffffffffffffffffffffffffffffffffff16146107e957600080fd5b6002805490508311156107fb57600080fd5b60005b6002805490508110156108b15783600282815481106108205761081f6112ff565b5b9060005260206000209060030201600001540361089e57826002828154811061084c5761084b6112ff565b5b9060005260206000209060030201600101908161086991906110e2565b50816002828154811061087f5761087e6112ff565b5b9060005260206000209060030201600201908161089c91906110e2565b505b80806108a99061124f565b9150506107fe565b50505050565b6001816000016000828254019250508190555050565b600081600001549050919050565b5080546108e790610f05565b6000825580601f106108f95750610918565b601f016020900490600052602060002090810190610917919061091b565b5b50565b5b8082111561093457600081600090555060010161091c565b5090565b6000604051905090565b600080fd5b600080fd5b600080fd5b600080fd5b6000601f19601f8301169050919050565b7f4e487b7100000000000000000000000000000000000000000000000000000000600052604160045260246000fd5b61099f82610956565b810181811067ffffffffffffffff821117156109be576109bd610967565b5b80604052505050565b60006109d1610938565b90506109dd8282610996565b919050565b600067ffffffffffffffff8211156109fd576109fc610967565b5b610a0682610956565b9050602081019050919050565b82818337600083830152505050565b6000610a35610a30846109e2565b6109c7565b905082815260208101848484011115610a5157610a50610951565b5b610a5c848285610a13565b509392505050565b600082601f830112610a7957610a7861094c565b5b8135610a89848260208601610a22565b91505092915050565b60008060408385031215610aa957610aa8610942565b5b600083013567ffffffffffffffff811115610ac757610ac6610947565b5b610ad385828601610a64565b925050602083013567ffffffffffffffff811115610af457610af3610947565b5b610b0085828601610a64565b9150509250929050565b6000819050919050565b610b1d81610b0a565b8114610b2857600080fd5b50565b600081359050610b3a81610b14565b92915050565b600060208284031215610b5657610b55610942565b5b6000610b6484828501610b2b565b91505092915050565b610b7681610b0a565b82525050565b600081519050919050565b600082825260208201905092915050565b60005b83811015610bb6578082015181840152602081019050610b9b565b60008484015250505050565b6000610bcd82610b7c565b610bd78185610b87565b9350610be7818560208601610b98565b610bf081610956565b840191505092915050565b6000606082019050610c106000830186610b6d565b8181036020830152610c228185610bc2565b90508181036040830152610c368184610bc2565b9050949350505050565b6000602082019050610c556000830184610b6d565b92915050565b600081519050919050565b600082825260208201905092915050565b6000819050602082019050919050565b610c9081610b0a565b82525050565b600082825260208201905092915050565b6000610cb282610b7c565b610cbc8185610c96565b9350610ccc818560208601610b98565b610cd581610956565b840191505092915050565b6000606083016000830151610cf86000860182610c87565b5060208301518482036020860152610d108282610ca7565b91505060408301518482036040860152610d2a8282610ca7565b9150508091505092915050565b6000610d438383610ce0565b905092915050565b6000602082019050919050565b6000610d6382610c5b565b610d6d8185610c66565b935083602082028501610d7f85610c77565b8060005b85811015610dbb5784840389528151610d9c8582610d37565b9450610da783610d4b565b925060208a01995050600181019050610d83565b50829750879550505050505092915050565b60006020820190508181036000830152610de78184610d58565b905092915050565b600073ffffffffffffffffffffffffffffffffffffffff82169050919050565b6000610e1a82610def565b9050919050565b610e2a81610e0f565b82525050565b6000602082019050610e456000830184610e21565b92915050565b600080600060608486031215610e6457610e63610942565b5b6000610e7286828701610b2b565b935050602084013567ffffffffffffffff811115610e9357610e92610947565b5b610e9f86828701610a64565b925050604084013567ffffffffffffffff811115610ec057610ebf610947565b5b610ecc86828701610a64565b9150509250925092565b7f4e487b7100000000000000000000000000000000000000000000000000000000600052602260045260246000fd5b60006002820490506001821680610f1d57607f821691505b602082108103610f3057610f2f610ed6565b5b50919050565b60008190508160005260206000209050919050565b60006020601f8301049050919050565b600082821b905092915050565b600060088302610f987fffffffffffffffffffffffffffffffffffffffffffffffffffffffffffffffff82610f5b565b610fa28683610f5b565b95508019841693508086168417925050509392505050565b6000819050919050565b6000610fdf610fda610fd584610b0a565b610fba565b610b0a565b9050919050565b6000819050919050565b610ff983610fc4565b61100d61100582610fe6565b848454610f68565b825550505050565b600090565b611022611015565b61102d818484610ff0565b505050565b5b818110156110515761104660008261101a565b600181019050611033565b5050565b601f8211156110965761106781610f36565b61107084610f4b565b8101602085101561107f578190505b61109361108b85610f4b565b830182611032565b50505b505050565b600082821c905092915050565b60006110b96000198460080261109b565b1980831691505092915050565b60006110d283836110a8565b9150826002028217905092915050565b6110eb82610b7c565b67ffffffffffffffff81111561110457611103610967565b5b61110e8254610f05565b611119828285611055565b600060209050601f83116001811461114c576000841561113a578287015190505b61114485826110c6565b8655506111ac565b601f19841661115a86610f36565b60005b828110156111825784890151825560018201915060208501945060208101905061115d565b8683101561119f578489015161119b601f8916826110a8565b8355505b6001600288020188555050505b505050505050565b7f4e6f207375636820656c656d656e742063616e20657869737400000000000000600082015250565b60006111ea601983610b87565b91506111f5826111b4565b602082019050919050565b60006020820190508181036000830152611219816111dd565b9050919050565b7f4e487b7100000000000000000000000000000000000000000000000000000000600052601160045260246000fd5b600061125a82610b0a565b91507fffffffffffffffffffffffffffffffffffffffffffffffffffffffffffffffff820361128c5761128b611220565b5b600182019050919050565b60006112a282610b0a565b91506112ad83610b0a565b92508282039050818111156112c5576112c4611220565b5b92915050565b60006112d682610b0a565b91506112e183610b0a565b92508282019050808211156112f9576112f8611220565b5b92915050565b7f4e487b7100000000000000000000000000000000000000000000000000000000600052603260045260246000fd5b60008154905061133d81610f05565b9050919050565b81810361135257505061142a565b61135b8261132e565b67ffffffffffffffff81111561137457611373610967565b5b61137e8254610f05565b611389828285611055565b6000601f8311600181146113b857600084156113a6578287015490505b6113b085826110c6565b865550611423565b601f1984166113c687610f36565b96506113d186610f36565b60005b828110156113f9578489015482556001820191506001850194506020810190506113d4565b868310156114165784890154611412601f8916826110a8565b8355505b6001600288020188555050505b5050505050505b565b7f4e487b7100000000000000000000000000000000000000000000000000000000600052603160045260246000fdfea2646970667358221220d66e512b1ae6c49647dd040ae486ed9e7c3b95e1867217430b8dc71562620e5064736f6c63430008110033","opcodes":"PUSH1 0x80 PUSH1 0x40 MSTORE CALLVALUE DUP1 ISZERO PUSH2 0x10 JUMPI PUSH1 0x0 DUP1 REVERT JUMPDEST POP PUSH2 0x1491 DUP1 PUSH2 0x20 PUSH1 0x0 CODECOPY PUSH1 0x0 RETURN INVALID PUSH1 0x80 PUSH1 0x40 MSTORE CALLVALUE DUP1 ISZERO PUSH2 0x10 JUMPI PUSH1 0x0 DUP1 REVERT JUMPDEST POP PUSH1 0x4 CALLDATASIZE LT PUSH2 0x7D JUMPI PUSH1 0x0 CALLDATALOAD PUSH1 0xE0 SHR DUP1 PUSH4 0x4FE8B4C1 GT PUSH2 0x5B JUMPI DUP1 PUSH4 0x4FE8B4C1 EQ PUSH2 0xEE JUMPI DUP1 PUSH4 0x6D4CE63C EQ PUSH2 0x10A JUMPI DUP1 PUSH4 0x8DA5CB5B EQ PUSH2 0x128 JUMPI DUP1 PUSH4 0xF95E0A54 EQ PUSH2 0x146 JUMPI PUSH2 0x7D JUMP JUMPDEST DUP1 PUSH4 0x198E2B8A EQ PUSH2 0x82 JUMPI DUP1 PUSH4 0x38D94193 EQ PUSH2 0x9E JUMPI DUP1 PUSH4 0x479E46A2 EQ PUSH2 0xD0 JUMPI JUMPDEST PUSH1 0x0 DUP1 REVERT JUMPDEST PUSH2 0x9C PUSH1 0x4 DUP1 CALLDATASIZE SUB DUP2 ADD SWAP1 PUSH2 0x97 SWAP2 SWAP1 PUSH2 0xA92 JUMP JUMPDEST PUSH2 0x162 JUMP JUMPDEST STOP JUMPDEST PUSH2 0xB8 PUSH1 0x4 DUP1 CALLDATASIZE SUB DUP2 ADD SWAP1 PUSH2 0xB3 SWAP2 SWAP1 PUSH2 0xB40 JUMP JUMPDEST PUSH2 0x255 JUMP JUMPDEST PUSH1 0x40 MLOAD PUSH2 0xC7 SWAP4 SWAP3 SWAP2 SWAP1 PUSH2 0xBFB JUMP JUMPDEST PUSH1 0x40 MLOAD DUP1 SWAP2 SUB SWAP1 RETURN JUMPDEST PUSH2 0xD8 PUSH2 0x39F JUMP JUMPDEST PUSH1 0x40 MLOAD PUSH2 0xE5 SWAP2 SWAP1 PUSH2 0xC40 JUMP JUMPDEST PUSH1 0x40 MLOAD DUP1 SWAP2 SUB SWAP1 RETURN JUMPDEST PUSH2 0x108 PUSH1 0x4 DUP1 CALLDATASIZE SUB DUP2 ADD SWAP1 PUSH2 0x103 SWAP2 SWAP1 PUSH2 0xB40 JUMP JUMPDEST PUSH2 0x3AB JUMP JUMPDEST STOP JUMPDEST PUSH2 0x112 PUSH2 0x588 JUMP JUMPDEST PUSH1 0x40 MLOAD PUSH2 0x11F SWAP2 SWAP1 PUSH2 0xDCD JUMP JUMPDEST PUSH1 0x40 MLOAD DUP1 SWAP2 SUB SWAP1 RETURN JUMPDEST PUSH2 0x130 PUSH2 0x76D JUMP JUMPDEST PUSH1 0x40 MLOAD PUSH2 0x13D SWAP2 SWAP1 PUSH2 0xE30 JUMP JUMPDEST PUSH1 0x40 MLOAD DUP1 SWAP2 SUB SWAP1 RETURN JUMPDEST PUSH2 0x160 PUSH1 0x4 DUP1 CALLDATASIZE SUB DUP2 ADD SWAP1 PUSH2 0x15B SWAP2 SWAP1 PUSH2 0xE4B JUMP JUMPDEST PUSH2 0x791 JUMP JUMPDEST STOP JUMPDEST PUSH1 0x0 DUP1 SLOAD SWAP1 PUSH2 0x100 EXP SWAP1 DIV PUSH20 0xFFFFFFFFFFFFFFFFFFFFFFFFFFFFFFFFFFFFFFFF AND PUSH20 0xFFFFFFFFFFFFFFFFFFFFFFFFFFFFFFFFFFFFFFFF AND CALLER PUSH20 0xFFFFFFFFFFFFFFFFFFFFFFFFFFFFFFFFFFFFFFFF AND EQ PUSH2 0x1BA JUMPI PUSH1 0x0 DUP1 REVERT JUMPDEST PUSH2 0x1C4 PUSH1 0x1 PUSH2 0x8B7 JUMP JUMPDEST PUSH1 0x0 PUSH1 0x40 MLOAD DUP1 PUSH1 0x60 ADD PUSH1 0x40 MSTORE DUP1 PUSH2 0x1DB PUSH1 0x1 PUSH2 0x8CD JUMP JUMPDEST DUP2 MSTORE PUSH1 0x20 ADD DUP5 DUP2 MSTORE PUSH1 0x20 ADD DUP4 DUP2 MSTORE POP SWAP1 POP PUSH1 0x2 DUP2 SWAP1 DUP1 PUSH1 0x1 DUP2 SLOAD ADD DUP1 DUP3 SSTORE DUP1 SWAP2 POP POP PUSH1 0x1 SWAP1 SUB SWAP1 PUSH1 0x0 MSTORE PUSH1 0x20 PUSH1 0x0 KECCAK256 SWAP1 PUSH1 0x3 MUL ADD PUSH1 0x0 SWAP1 SWAP2 SWAP1 SWAP2 SWAP1 SWAP2 POP PUSH1 0x0 DUP3 ADD MLOAD DUP2 PUSH1 0x0 ADD SSTORE PUSH1 0x20 DUP3 ADD MLOAD DUP2 PUSH1 0x1 ADD SWAP1 DUP2 PUSH2 0x237 SWAP2 SWAP1 PUSH2 0x10E2 JUMP JUMPDEST POP PUSH1 0x40 DUP3 ADD MLOAD DUP2 PUSH1 0x2 ADD SWAP1 DUP2 PUSH2 0x24D SWAP2 SWAP1 PUSH2 0x10E2 JUMP JUMPDEST POP POP POP POP POP POP JUMP JUMPDEST PUSH1 0x2 DUP2 DUP2 SLOAD DUP2 LT PUSH2 0x265 JUMPI PUSH1 0x0 DUP1 REVERT JUMPDEST SWAP1 PUSH1 0x0 MSTORE PUSH1 0x20 PUSH1 0x0 KECCAK256 SWAP1 PUSH1 0x3 MUL ADD PUSH1 0x0 SWAP2 POP SWAP1 POP DUP1 PUSH1 0x0 ADD SLOAD SWAP1 DUP1 PUSH1 0x1 ADD DUP1 SLOAD PUSH2 0x28E SWAP1 PUSH2 0xF05 JUMP JUMPDEST DUP1 PUSH1 0x1F ADD PUSH1 0x20 DUP1 SWAP2 DIV MUL PUSH1 0x20 ADD PUSH1 0x40 MLOAD SWAP1 DUP2 ADD PUSH1 0x40 MSTORE DUP1 SWAP3 SWAP2 SWAP1 DUP2 DUP2 MSTORE PUSH1 0x20 ADD DUP3 DUP1 SLOAD PUSH2 0x2BA SWAP1 PUSH2 0xF05 JUMP JUMPDEST DUP1 ISZERO PUSH2 0x307 JUMPI DUP1 PUSH1 0x1F LT PUSH2 0x2DC JUMPI PUSH2 0x100 DUP1 DUP4 SLOAD DIV MUL DUP4 MSTORE SWAP2 PUSH1 0x20 ADD SWAP2 PUSH2 0x307 JUMP JUMPDEST DUP3 ADD SWAP2 SWAP1 PUSH1 0x0 MSTORE PUSH1 0x20 PUSH1 0x0 KECCAK256 SWAP1 JUMPDEST DUP2 SLOAD DUP2 MSTORE SWAP1 PUSH1 0x1 ADD SWAP1 PUSH1 0x20 ADD DUP1 DUP4 GT PUSH2 0x2EA JUMPI DUP3 SWAP1 SUB PUSH1 0x1F AND DUP3 ADD SWAP2 JUMPDEST POP POP POP POP POP SWAP1 DUP1 PUSH1 0x2 ADD DUP1 SLOAD PUSH2 0x31C SWAP1 PUSH2 0xF05 JUMP JUMPDEST DUP1 PUSH1 0x1F ADD PUSH1 0x20 DUP1 SWAP2 DIV MUL PUSH1 0x20 ADD PUSH1 0x40 MLOAD SWAP1 DUP2 ADD PUSH1 0x40 MSTORE DUP1 SWAP3 SWAP2 SWAP1 DUP2 DUP2 MSTORE PUSH1 0x20 ADD DUP3 DUP1 SLOAD PUSH2 0x348 SWAP1 PUSH2 0xF05 JUMP JUMPDEST DUP1 ISZERO PUSH2 0x395 JUMPI DUP1 PUSH1 0x1F LT PUSH2 0x36A JUMPI PUSH2 0x100 DUP1 DUP4 SLOAD DIV MUL DUP4 MSTORE SWAP2 PUSH1 0x20 ADD SWAP2 PUSH2 0x395 JUMP JUMPDEST DUP3 ADD SWAP2 SWAP1 PUSH1 0x0 MSTORE PUSH1 0x20 PUSH1 0x0 KECCAK256 SWAP1 JUMPDEST DUP2 SLOAD DUP2 MSTORE SWAP1 PUSH1 0x1 ADD SWAP1 PUSH1 0x20 ADD DUP1 DUP4 GT PUSH2 0x378 JUMPI DUP3 SWAP1 SUB PUSH1 0x1F AND DUP3 ADD SWAP2 JUMPDEST POP POP POP POP POP SWAP1 POP DUP4 JUMP JUMPDEST PUSH1 0x1 DUP1 PUSH1 0x0 ADD SLOAD SWAP1 POP DUP2 JUMP JUMPDEST PUSH1 0x0 DUP1 SLOAD SWAP1 PUSH2 0x100 EXP SWAP1 DIV PUSH20 0xFFFFFFFFFFFFFFFFFFFFFFFFFFFFFFFFFFFFFFFF AND PUSH20 0xFFFFFFFFFFFFFFFFFFFFFFFFFFFFFFFFFFFFFFFF AND CALLER PUSH20 0xFFFFFFFFFFFFFFFFFFFFFFFFFFFFFFFFFFFFFFFF AND EQ PUSH2 0x403 JUMPI PUSH1 0x0 DUP1 REVERT JUMPDEST PUSH1 0x2 DUP1 SLOAD SWAP1 POP DUP2 GT ISZERO PUSH2 0x44B JUMPI PUSH1 0x40 MLOAD PUSH32 0x8C379A000000000000000000000000000000000000000000000000000000000 DUP2 MSTORE PUSH1 0x4 ADD PUSH2 0x442 SWAP1 PUSH2 0x1200 JUMP JUMPDEST PUSH1 0x40 MLOAD DUP1 SWAP2 SUB SWAP1 REVERT JUMPDEST PUSH1 0x0 DUP1 PUSH1 0x0 SWAP1 POP JUMPDEST PUSH1 0x2 DUP1 SLOAD SWAP1 POP DUP2 LT ISZERO PUSH2 0x476 JUMPI DUP1 SWAP2 POP DUP1 DUP1 PUSH2 0x46E SWAP1 PUSH2 0x124F JUMP JUMPDEST SWAP2 POP POP PUSH2 0x453 JUMP JUMPDEST POP PUSH1 0x0 DUP2 SWAP1 POP JUMPDEST PUSH1 0x1 PUSH1 0x2 DUP1 SLOAD SWAP1 POP PUSH2 0x48F SWAP2 SWAP1 PUSH2 0x1297 JUMP JUMPDEST DUP2 LT ISZERO PUSH2 0x530 JUMPI PUSH1 0x2 PUSH1 0x1 DUP3 PUSH2 0x4A5 SWAP2 SWAP1 PUSH2 0x12CB JUMP JUMPDEST DUP2 SLOAD DUP2 LT PUSH2 0x4B6 JUMPI PUSH2 0x4B5 PUSH2 0x12FF JUMP JUMPDEST JUMPDEST SWAP1 PUSH1 0x0 MSTORE PUSH1 0x20 PUSH1 0x0 KECCAK256 SWAP1 PUSH1 0x3 MUL ADD PUSH1 0x2 DUP3 DUP2 SLOAD DUP2 LT PUSH2 0x4D8 JUMPI PUSH2 0x4D7 PUSH2 0x12FF JUMP JUMPDEST JUMPDEST SWAP1 PUSH1 0x0 MSTORE PUSH1 0x20 PUSH1 0x0 KECCAK256 SWAP1 PUSH1 0x3 MUL ADD PUSH1 0x0 DUP3 ADD SLOAD DUP2 PUSH1 0x0 ADD SSTORE PUSH1 0x1 DUP3 ADD DUP2 PUSH1 0x1 ADD SWAP1 DUP2 PUSH2 0x504 SWAP2 SWAP1 PUSH2 0x1344 JUMP JUMPDEST POP PUSH1 0x2 DUP3 ADD DUP2 PUSH1 0x2 ADD SWAP1 DUP2 PUSH2 0x519 SWAP2 SWAP1 PUSH2 0x1344 JUMP JUMPDEST POP SWAP1 POP POP DUP1 DUP1 PUSH2 0x528 SWAP1 PUSH2 0x124F JUMP JUMPDEST SWAP2 POP POP PUSH2 0x47D JUMP JUMPDEST POP PUSH1 0x2 DUP1 SLOAD DUP1 PUSH2 0x543 JUMPI PUSH2 0x542 PUSH2 0x142C JUMP JUMPDEST JUMPDEST PUSH1 0x1 SWAP1 SUB DUP2 DUP2 SWAP1 PUSH1 0x0 MSTORE PUSH1 0x20 PUSH1 0x0 KECCAK256 SWAP1 PUSH1 0x3 MUL ADD PUSH1 0x0 DUP1 DUP3 ADD PUSH1 0x0 SWAP1 SSTORE PUSH1 0x1 DUP3 ADD PUSH1 0x0 PUSH2 0x570 SWAP2 SWAP1 PUSH2 0x8DB JUMP JUMPDEST PUSH1 0x2 DUP3 ADD PUSH1 0x0 PUSH2 0x580 SWAP2 SWAP1 PUSH2 0x8DB JUMP JUMPDEST POP POP SWAP1 SSTORE POP POP JUMP JUMPDEST PUSH1 0x60 PUSH1 0x0 DUP1 SLOAD SWAP1 PUSH2 0x100 EXP SWAP1 DIV PUSH20 0xFFFFFFFFFFFFFFFFFFFFFFFFFFFFFFFFFFFFFFFF AND PUSH20 0xFFFFFFFFFFFFFFFFFFFFFFFFFFFFFFFFFFFFFFFF AND CALLER PUSH20 0xFFFFFFFFFFFFFFFFFFFFFFFFFFFFFFFFFFFFFFFF AND EQ PUSH2 0x5E2 JUMPI PUSH1 0x0 DUP1 REVERT JUMPDEST PUSH1 0x2 DUP1 SLOAD DUP1 PUSH1 0x20 MUL PUSH1 0x20 ADD PUSH1 0x40 MLOAD SWAP1 DUP2 ADD PUSH1 0x40 MSTORE DUP1 SWAP3 SWAP2 SWAP1 DUP2 DUP2 MSTORE PUSH1 0x20 ADD PUSH1 0x0 SWAP1 JUMPDEST DUP3 DUP3 LT ISZERO PUSH2 0x764 JUMPI DUP4 DUP3 SWAP1 PUSH1 0x0 MSTORE PUSH1 0x20 PUSH1 0x0 KECCAK256 SWAP1 PUSH1 0x3 MUL ADD PUSH1 0x40 MLOAD DUP1 PUSH1 0x60 ADD PUSH1 0x40 MSTORE SWAP1 DUP2 PUSH1 0x0 DUP3 ADD SLOAD DUP2 MSTORE PUSH1 0x20 ADD PUSH1 0x1 DUP3 ADD DUP1 SLOAD PUSH2 0x641 SWAP1 PUSH2 0xF05 JUMP JUMPDEST DUP1 PUSH1 0x1F ADD PUSH1 0x20 DUP1 SWAP2 DIV MUL PUSH1 0x20 ADD PUSH1 0x40 MLOAD SWAP1 DUP2 ADD PUSH1 0x40 MSTORE DUP1 SWAP3 SWAP2 SWAP1 DUP2 DUP2 MSTORE PUSH1 0x20 ADD DUP3 DUP1 SLOAD PUSH2 0x66D SWAP1 PUSH2 0xF05 JUMP JUMPDEST DUP1 ISZERO PUSH2 0x6BA JUMPI DUP1 PUSH1 0x1F LT PUSH2 0x68F JUMPI PUSH2 0x100 DUP1 DUP4 SLOAD DIV MUL DUP4 MSTORE SWAP2 PUSH1 0x20 ADD SWAP2 PUSH2 0x6BA JUMP JUMPDEST DUP3 ADD SWAP2 SWAP1 PUSH1 0x0 MSTORE PUSH1 0x20 PUSH1 0x0 KECCAK256 SWAP1 JUMPDEST DUP2 SLOAD DUP2 MSTORE SWAP1 PUSH1 0x1 ADD SWAP1 PUSH1 0x20 ADD DUP1 DUP4 GT PUSH2 0x69D JUMPI DUP3 SWAP1 SUB PUSH1 0x1F AND DUP3 ADD SWAP2 JUMPDEST POP POP POP POP POP DUP2 MSTORE PUSH1 0x20 ADD PUSH1 0x2 DUP3 ADD DUP1 SLOAD PUSH2 0x6D3 SWAP1 PUSH2 0xF05 JUMP JUMPDEST DUP1 PUSH1 0x1F ADD PUSH1 0x20 DUP1 SWAP2 DIV MUL PUSH1 0x20 ADD PUSH1 0x40 MLOAD SWAP1 DUP2 ADD PUSH1 0x40 MSTORE DUP1 SWAP3 SWAP2 SWAP1 DUP2 DUP2 MSTORE PUSH1 0x20 ADD DUP3 DUP1 SLOAD PUSH2 0x6FF SWAP1 PUSH2 0xF05 JUMP JUMPDEST DUP1 ISZERO PUSH2 0x74C JUMPI DUP1 PUSH1 0x1F LT PUSH2 0x721 JUMPI PUSH2 0x100 DUP1 DUP4 SLOAD DIV MUL DUP4 MSTORE SWAP2 PUSH1 0x20 ADD SWAP2 PUSH2 0x74C JUMP JUMPDEST DUP3 ADD SWAP2 SWAP1 PUSH1 0x0 MSTORE PUSH1 0x20 PUSH1 0x0 KECCAK256 SWAP1 JUMPDEST DUP2 SLOAD DUP2 MSTORE SWAP1 PUSH1 0x1 ADD SWAP1 PUSH1 0x20 ADD DUP1 DUP4 GT PUSH2 0x72F JUMPI DUP3 SWAP1 SUB PUSH1 0x1F AND DUP3 ADD SWAP2 JUMPDEST POP POP POP POP POP DUP2 MSTORE POP POP DUP2 MSTORE PUSH1 0x20 ADD SWAP1 PUSH1 0x1 ADD SWAP1 PUSH2 0x604 JUMP JUMPDEST POP POP POP POP SWAP1 POP SWAP1 JUMP JUMPDEST PUSH1 0x0 DUP1 SLOAD SWAP1 PUSH2 0x100 EXP SWAP1 DIV PUSH20 0xFFFFFFFFFFFFFFFFFFFFFFFFFFFFFFFFFFFFFFFF AND DUP2 JUMP JUMPDEST PUSH1 0x0 DUP1 SLOAD SWAP1 PUSH2 0x100 EXP SWAP1 DIV PUSH20 0xFFFFFFFFFFFFFFFFFFFFFFFFFFFFFFFFFFFFFFFF AND PUSH20 0xFFFFFFFFFFFFFFFFFFFFFFFFFFFFFFFFFFFFFFFF AND CALLER PUSH20 0xFFFFFFFFFFFFFFFFFFFFFFFFFFFFFFFFFFFFFFFF AND EQ PUSH2 0x7E9 JUMPI PUSH1 0x0 DUP1 REVERT JUMPDEST PUSH1 0x2 DUP1 SLOAD SWAP1 POP DUP4 GT ISZERO PUSH2 0x7FB JUMPI PUSH1 0x0 DUP1 REVERT JUMPDEST PUSH1 0x0 JUMPDEST PUSH1 0x2 DUP1 SLOAD SWAP1 POP DUP2 LT ISZERO PUSH2 0x8B1 JUMPI DUP4 PUSH1 0x2 DUP3 DUP2 SLOAD DUP2 LT PUSH2 0x820 JUMPI PUSH2 0x81F PUSH2 0x12FF JUMP JUMPDEST JUMPDEST SWAP1 PUSH1 0x0 MSTORE PUSH1 0x20 PUSH1 0x0 KECCAK256 SWAP1 PUSH1 0x3 MUL ADD PUSH1 0x0 ADD SLOAD SUB PUSH2 0x89E JUMPI DUP3 PUSH1 0x2 DUP3 DUP2 SLOAD DUP2 LT PUSH2 0x84C JUMPI PUSH2 0x84B PUSH2 0x12FF JUMP JUMPDEST JUMPDEST SWAP1 PUSH1 0x0 MSTORE PUSH1 0x20 PUSH1 0x0 KECCAK256 SWAP1 PUSH1 0x3 MUL ADD PUSH1 0x1 ADD SWAP1 DUP2 PUSH2 0x869 SWAP2 SWAP1 PUSH2 0x10E2 JUMP JUMPDEST POP DUP2 PUSH1 0x2 DUP3 DUP2 SLOAD DUP2 LT PUSH2 0x87F JUMPI PUSH2 0x87E PUSH2 0x12FF JUMP JUMPDEST JUMPDEST SWAP1 PUSH1 0x0 MSTORE PUSH1 0x20 PUSH1 0x0 KECCAK256 SWAP1 PUSH1 0x3 MUL ADD PUSH1 0x2 ADD SWAP1 DUP2 PUSH2 0x89C SWAP2 SWAP1 PUSH2 0x10E2 JUMP JUMPDEST POP JUMPDEST DUP1 DUP1 PUSH2 0x8A9 SWAP1 PUSH2 0x124F JUMP JUMPDEST SWAP2 POP POP PUSH2 0x7FE JUMP JUMPDEST POP POP POP POP JUMP JUMPDEST PUSH1 0x1 DUP2 PUSH1 0x0 ADD PUSH1 0x0 DUP3 DUP3 SLOAD ADD SWAP3 POP POP DUP2 SWAP1 SSTORE POP POP JUMP JUMPDEST PUSH1 0x0 DUP2 PUSH1 0x0 ADD SLOAD SWAP1 POP SWAP2 SWAP1 POP JUMP JUMPDEST POP DUP1 SLOAD PUSH2 0x8E7 SWAP1 PUSH2 0xF05 JUMP JUMPDEST PUSH1 0x0 DUP3 SSTORE DUP1 PUSH1 0x1F LT PUSH2 0x8F9 JUMPI POP PUSH2 0x918 JUMP JUMPDEST PUSH1 0x1F ADD PUSH1 0x20 SWAP1 DIV SWAP1 PUSH1 0x0 MSTORE PUSH1 0x20 PUSH1 0x0 KECCAK256 SWAP1 DUP2 ADD SWAP1 PUSH2 0x917 SWAP2 SWAP1 PUSH2 0x91B JUMP JUMPDEST JUMPDEST POP JUMP JUMPDEST JUMPDEST DUP1 DUP3 GT ISZERO PUSH2 0x934 JUMPI PUSH1 0x0 DUP2 PUSH1 0x0 SWAP1 SSTORE POP PUSH1 0x1 ADD PUSH2 0x91C JUMP JUMPDEST POP SWAP1 JUMP JUMPDEST PUSH1 0x0 PUSH1 0x40 MLOAD SWAP1 POP SWAP1 JUMP JUMPDEST PUSH1 0x0 DUP1 REVERT JUMPDEST PUSH1 0x0 DUP1 REVERT JUMPDEST PUSH1 0x0 DUP1 REVERT JUMPDEST PUSH1 0x0 DUP1 REVERT JUMPDEST PUSH1 0x0 PUSH1 0x1F NOT PUSH1 0x1F DUP4 ADD AND SWAP1 POP SWAP2 SWAP1 POP JUMP JUMPDEST PUSH32 0x4E487B7100000000000000000000000000000000000000000000000000000000 PUSH1 0x0 MSTORE PUSH1 0x41 PUSH1 0x4 MSTORE PUSH1 0x24 PUSH1 0x0 REVERT JUMPDEST PUSH2 0x99F DUP3 PUSH2 0x956 JUMP JUMPDEST DUP2 ADD DUP2 DUP2 LT PUSH8 0xFFFFFFFFFFFFFFFF DUP3 GT OR ISZERO PUSH2 0x9BE JUMPI PUSH2 0x9BD PUSH2 0x967 JUMP JUMPDEST JUMPDEST DUP1 PUSH1 0x40 MSTORE POP POP POP JUMP JUMPDEST PUSH1 0x0 PUSH2 0x9D1 PUSH2 0x938 JUMP JUMPDEST SWAP1 POP PUSH2 0x9DD DUP3 DUP3 PUSH2 0x996 JUMP JUMPDEST SWAP2 SWAP1 POP JUMP JUMPDEST PUSH1 0x0 PUSH8 0xFFFFFFFFFFFFFFFF DUP3 GT ISZERO PUSH2 0x9FD JUMPI PUSH2 0x9FC PUSH2 0x967 JUMP JUMPDEST JUMPDEST PUSH2 0xA06 DUP3 PUSH2 0x956 JUMP JUMPDEST SWAP1 POP PUSH1 0x20 DUP2 ADD SWAP1 POP SWAP2 SWAP1 POP JUMP JUMPDEST DUP3 DUP2 DUP4 CALLDATACOPY PUSH1 0x0 DUP4 DUP4 ADD MSTORE POP POP POP JUMP JUMPDEST PUSH1 0x0 PUSH2 0xA35 PUSH2 0xA30 DUP5 PUSH2 0x9E2 JUMP JUMPDEST PUSH2 0x9C7 JUMP JUMPDEST SWAP1 POP DUP3 DUP2 MSTORE PUSH1 0x20 DUP2 ADD DUP5 DUP5 DUP5 ADD GT ISZERO PUSH2 0xA51 JUMPI PUSH2 0xA50 PUSH2 0x951 JUMP JUMPDEST JUMPDEST PUSH2 0xA5C DUP5 DUP3 DUP6 PUSH2 0xA13 JUMP JUMPDEST POP SWAP4 SWAP3 POP POP POP JUMP JUMPDEST PUSH1 0x0 DUP3 PUSH1 0x1F DUP4 ADD SLT PUSH2 0xA79 JUMPI PUSH2 0xA78 PUSH2 0x94C JUMP JUMPDEST JUMPDEST DUP2 CALLDATALOAD PUSH2 0xA89 DUP5 DUP3 PUSH1 0x20 DUP7 ADD PUSH2 0xA22 JUMP JUMPDEST SWAP2 POP POP SWAP3 SWAP2 POP POP JUMP JUMPDEST PUSH1 0x0 DUP1 PUSH1 0x40 DUP4 DUP6 SUB SLT ISZERO PUSH2 0xAA9 JUMPI PUSH2 0xAA8 PUSH2 0x942 JUMP JUMPDEST JUMPDEST PUSH1 0x0 DUP4 ADD CALLDATALOAD PUSH8 0xFFFFFFFFFFFFFFFF DUP2 GT ISZERO PUSH2 0xAC7 JUMPI PUSH2 0xAC6 PUSH2 0x947 JUMP JUMPDEST JUMPDEST PUSH2 0xAD3 DUP6 DUP3 DUP7 ADD PUSH2 0xA64 JUMP JUMPDEST SWAP3 POP POP PUSH1 0x20 DUP4 ADD CALLDATALOAD PUSH8 0xFFFFFFFFFFFFFFFF DUP2 GT ISZERO PUSH2 0xAF4 JUMPI PUSH2 0xAF3 PUSH2 0x947 JUMP JUMPDEST JUMPDEST PUSH2 0xB00 DUP6 DUP3 DUP7 ADD PUSH2 0xA64 JUMP JUMPDEST SWAP2 POP POP SWAP3 POP SWAP3 SWAP1 POP JUMP JUMPDEST PUSH1 0x0 DUP2 SWAP1 POP SWAP2 SWAP1 POP JUMP JUMPDEST PUSH2 0xB1D DUP2 PUSH2 0xB0A JUMP JUMPDEST DUP2 EQ PUSH2 0xB28 JUMPI PUSH1 0x0 DUP1 REVERT JUMPDEST POP JUMP JUMPDEST PUSH1 0x0 DUP2 CALLDATALOAD SWAP1 POP PUSH2 0xB3A DUP2 PUSH2 0xB14 JUMP JUMPDEST SWAP3 SWAP2 POP POP JUMP JUMPDEST PUSH1 0x0 PUSH1 0x20 DUP3 DUP5 SUB SLT ISZERO PUSH2 0xB56 JUMPI PUSH2 0xB55 PUSH2 0x942 JUMP JUMPDEST JUMPDEST PUSH1 0x0 PUSH2 0xB64 DUP5 DUP3 DUP6 ADD PUSH2 0xB2B JUMP JUMPDEST SWAP2 POP POP SWAP3 SWAP2 POP POP JUMP JUMPDEST PUSH2 0xB76 DUP2 PUSH2 0xB0A JUMP JUMPDEST DUP3 MSTORE POP POP JUMP JUMPDEST PUSH1 0x0 DUP2 MLOAD SWAP1 POP SWAP2 SWAP1 POP JUMP JUMPDEST PUSH1 0x0 DUP3 DUP3 MSTORE PUSH1 0x20 DUP3 ADD SWAP1 POP SWAP3 SWAP2 POP POP JUMP JUMPDEST PUSH1 0x0 JUMPDEST DUP4 DUP2 LT ISZERO PUSH2 0xBB6 JUMPI DUP1 DUP3 ADD MLOAD DUP2 DUP5 ADD MSTORE PUSH1 0x20 DUP2 ADD SWAP1 POP PUSH2 0xB9B JUMP JUMPDEST PUSH1 0x0 DUP5 DUP5 ADD MSTORE POP POP POP POP JUMP JUMPDEST PUSH1 0x0 PUSH2 0xBCD DUP3 PUSH2 0xB7C JUMP JUMPDEST PUSH2 0xBD7 DUP2 DUP6 PUSH2 0xB87 JUMP JUMPDEST SWAP4 POP PUSH2 0xBE7 DUP2 DUP6 PUSH1 0x20 DUP7 ADD PUSH2 0xB98 JUMP JUMPDEST PUSH2 0xBF0 DUP2 PUSH2 0x956 JUMP JUMPDEST DUP5 ADD SWAP2 POP POP SWAP3 SWAP2 POP POP JUMP JUMPDEST PUSH1 0x0 PUSH1 0x60 DUP3 ADD SWAP1 POP PUSH2 0xC10 PUSH1 0x0 DUP4 ADD DUP7 PUSH2 0xB6D JUMP JUMPDEST DUP2 DUP2 SUB PUSH1 0x20 DUP4 ADD MSTORE PUSH2 0xC22 DUP2 DUP6 PUSH2 0xBC2 JUMP JUMPDEST SWAP1 POP DUP2 DUP2 SUB PUSH1 0x40 DUP4 ADD MSTORE PUSH2 0xC36 DUP2 DUP5 PUSH2 0xBC2 JUMP JUMPDEST SWAP1 POP SWAP5 SWAP4 POP POP POP POP JUMP JUMPDEST PUSH1 0x0 PUSH1 0x20 DUP3 ADD SWAP1 POP PUSH2 0xC55 PUSH1 0x0 DUP4 ADD DUP5 PUSH2 0xB6D JUMP JUMPDEST SWAP3 SWAP2 POP POP JUMP JUMPDEST PUSH1 0x0 DUP2 MLOAD SWAP1 POP SWAP2 SWAP1 POP JUMP JUMPDEST PUSH1 0x0 DUP3 DUP3 MSTORE PUSH1 0x20 DUP3 ADD SWAP1 POP SWAP3 SWAP2 POP POP JUMP JUMPDEST PUSH1 0x0 DUP2 SWAP1 POP PUSH1 0x20 DUP3 ADD SWAP1 POP SWAP2 SWAP1 POP JUMP JUMPDEST PUSH2 0xC90 DUP2 PUSH2 0xB0A JUMP JUMPDEST DUP3 MSTORE POP POP JUMP JUMPDEST PUSH1 0x0 DUP3 DUP3 MSTORE PUSH1 0x20 DUP3 ADD SWAP1 POP SWAP3 SWAP2 POP POP JUMP JUMPDEST PUSH1 0x0 PUSH2 0xCB2 DUP3 PUSH2 0xB7C JUMP JUMPDEST PUSH2 0xCBC DUP2 DUP6 PUSH2 0xC96 JUMP JUMPDEST SWAP4 POP PUSH2 0xCCC DUP2 DUP6 PUSH1 0x20 DUP7 ADD PUSH2 0xB98 JUMP JUMPDEST PUSH2 0xCD5 DUP2 PUSH2 0x956 JUMP JUMPDEST DUP5 ADD SWAP2 POP POP SWAP3 SWAP2 POP POP JUMP JUMPDEST PUSH1 0x0 PUSH1 0x60 DUP4 ADD PUSH1 0x0 DUP4 ADD MLOAD PUSH2 0xCF8 PUSH1 0x0 DUP7 ADD DUP3 PUSH2 0xC87 JUMP JUMPDEST POP PUSH1 0x20 DUP4 ADD MLOAD DUP5 DUP3 SUB PUSH1 0x20 DUP7 ADD MSTORE PUSH2 0xD10 DUP3 DUP3 PUSH2 0xCA7 JUMP JUMPDEST SWAP2 POP POP PUSH1 0x40 DUP4 ADD MLOAD DUP5 DUP3 SUB PUSH1 0x40 DUP7 ADD MSTORE PUSH2 0xD2A DUP3 DUP3 PUSH2 0xCA7 JUMP JUMPDEST SWAP2 POP POP DUP1 SWAP2 POP POP SWAP3 SWAP2 POP POP JUMP JUMPDEST PUSH1 0x0 PUSH2 0xD43 DUP4 DUP4 PUSH2 0xCE0 JUMP JUMPDEST SWAP1 POP SWAP3 SWAP2 POP POP JUMP JUMPDEST PUSH1 0x0 PUSH1 0x20 DUP3 ADD SWAP1 POP SWAP2 SWAP1 POP JUMP JUMPDEST PUSH1 0x0 PUSH2 0xD63 DUP3 PUSH2 0xC5B JUMP JUMPDEST PUSH2 0xD6D DUP2 DUP6 PUSH2 0xC66 JUMP JUMPDEST SWAP4 POP DUP4 PUSH1 0x20 DUP3 MUL DUP6 ADD PUSH2 0xD7F DUP6 PUSH2 0xC77 JUMP JUMPDEST DUP1 PUSH1 0x0 JUMPDEST DUP6 DUP2 LT ISZERO PUSH2 0xDBB JUMPI DUP5 DUP5 SUB DUP10 MSTORE DUP2 MLOAD PUSH2 0xD9C DUP6 DUP3 PUSH2 0xD37 JUMP JUMPDEST SWAP5 POP PUSH2 0xDA7 DUP4 PUSH2 0xD4B JUMP JUMPDEST SWAP3 POP PUSH1 0x20 DUP11 ADD SWAP10 POP POP PUSH1 0x1 DUP2 ADD SWAP1 POP PUSH2 0xD83 JUMP JUMPDEST POP DUP3 SWAP8 POP DUP8 SWAP6 POP POP POP POP POP POP SWAP3 SWAP2 POP POP JUMP JUMPDEST PUSH1 0x0 PUSH1 0x20 DUP3 ADD SWAP1 POP DUP2 DUP2 SUB PUSH1 0x0 DUP4 ADD MSTORE PUSH2 0xDE7 DUP2 DUP5 PUSH2 0xD58 JUMP JUMPDEST SWAP1 POP SWAP3 SWAP2 POP POP JUMP JUMPDEST PUSH1 0x0 PUSH20 0xFFFFFFFFFFFFFFFFFFFFFFFFFFFFFFFFFFFFFFFF DUP3 AND SWAP1 POP SWAP2 SWAP1 POP JUMP JUMPDEST PUSH1 0x0 PUSH2 0xE1A DUP3 PUSH2 0xDEF JUMP JUMPDEST SWAP1 POP SWAP2 SWAP1 POP JUMP JUMPDEST PUSH2 0xE2A DUP2 PUSH2 0xE0F JUMP JUMPDEST DUP3 MSTORE POP POP JUMP JUMPDEST PUSH1 0x0 PUSH1 0x20 DUP3 ADD SWAP1 POP PUSH2 0xE45 PUSH1 0x0 DUP4 ADD DUP5 PUSH2 0xE21 JUMP JUMPDEST SWAP3 SWAP2 POP POP JUMP JUMPDEST PUSH1 0x0 DUP1 PUSH1 0x0 PUSH1 0x60 DUP5 DUP7 SUB SLT ISZERO PUSH2 0xE64 JUMPI PUSH2 0xE63 PUSH2 0x942 JUMP JUMPDEST JUMPDEST PUSH1 0x0 PUSH2 0xE72 DUP7 DUP3 DUP8 ADD PUSH2 0xB2B JUMP JUMPDEST SWAP4 POP POP PUSH1 0x20 DUP5 ADD CALLDATALOAD PUSH8 0xFFFFFFFFFFFFFFFF DUP2 GT ISZERO PUSH2 0xE93 JUMPI PUSH2 0xE92 PUSH2 0x947 JUMP JUMPDEST JUMPDEST PUSH2 0xE9F DUP7 DUP3 DUP8 ADD PUSH2 0xA64 JUMP JUMPDEST SWAP3 POP POP PUSH1 0x40 DUP5 ADD CALLDATALOAD PUSH8 0xFFFFFFFFFFFFFFFF DUP2 GT ISZERO PUSH2 0xEC0 JUMPI PUSH2 0xEBF PUSH2 0x947 JUMP JUMPDEST JUMPDEST PUSH2 0xECC DUP7 DUP3 DUP8 ADD PUSH2 0xA64 JUMP JUMPDEST SWAP2 POP POP SWAP3 POP SWAP3 POP SWAP3 JUMP JUMPDEST PUSH32 0x4E487B7100000000000000000000000000000000000000000000000000000000 PUSH1 0x0 MSTORE PUSH1 0x22 PUSH1 0x4 MSTORE PUSH1 0x24 PUSH1 0x0 REVERT JUMPDEST PUSH1 0x0 PUSH1 0x2 DUP3 DIV SWAP1 POP PUSH1 0x1 DUP3 AND DUP1 PUSH2 0xF1D JUMPI PUSH1 0x7F DUP3 AND SWAP2 POP JUMPDEST PUSH1 0x20 DUP3 LT DUP2 SUB PUSH2 0xF30 JUMPI PUSH2 0xF2F PUSH2 0xED6 JUMP JUMPDEST JUMPDEST POP SWAP2 SWAP1 POP JUMP JUMPDEST PUSH1 0x0 DUP2 SWAP1 POP DUP2 PUSH1 0x0 MSTORE PUSH1 0x20 PUSH1 0x0 KECCAK256 SWAP1 POP SWAP2 SWAP1 POP JUMP JUMPDEST PUSH1 0x0 PUSH1 0x20 PUSH1 0x1F DUP4 ADD DIV SWAP1 POP SWAP2 SWAP1 POP JUMP JUMPDEST PUSH1 0x0 DUP3 DUP3 SHL SWAP1 POP SWAP3 SWAP2 POP POP JUMP JUMPDEST PUSH1 0x0 PUSH1 0x8 DUP4 MUL PUSH2 0xF98 PUSH32 0xFFFFFFFFFFFFFFFFFFFFFFFFFFFFFFFFFFFFFFFFFFFFFFFFFFFFFFFFFFFFFFFF DUP3 PUSH2 0xF5B JUMP JUMPDEST PUSH2 0xFA2 DUP7 DUP4 PUSH2 0xF5B JUMP JUMPDEST SWAP6 POP DUP1 NOT DUP5 AND SWAP4 POP DUP1 DUP7 AND DUP5 OR SWAP3 POP POP POP SWAP4 SWAP3 POP POP POP JUMP JUMPDEST PUSH1 0x0 DUP2 SWAP1 POP SWAP2 SWAP1 POP JUMP JUMPDEST PUSH1 0x0 PUSH2 0xFDF PUSH2 0xFDA PUSH2 0xFD5 DUP5 PUSH2 0xB0A JUMP JUMPDEST PUSH2 0xFBA JUMP JUMPDEST PUSH2 0xB0A JUMP JUMPDEST SWAP1 POP SWAP2 SWAP1 POP JUMP JUMPDEST PUSH1 0x0 DUP2 SWAP1 POP SWAP2 SWAP1 POP JUMP JUMPDEST PUSH2 0xFF9 DUP4 PUSH2 0xFC4 JUMP JUMPDEST PUSH2 0x100D PUSH2 0x1005 DUP3 PUSH2 0xFE6 JUMP JUMPDEST DUP5 DUP5 SLOAD PUSH2 0xF68 JUMP JUMPDEST DUP3 SSTORE POP POP POP POP JUMP JUMPDEST PUSH1 0x0 SWAP1 JUMP JUMPDEST PUSH2 0x1022 PUSH2 0x1015 JUMP JUMPDEST PUSH2 0x102D DUP2 DUP5 DUP5 PUSH2 0xFF0 JUMP JUMPDEST POP POP POP JUMP JUMPDEST JUMPDEST DUP2 DUP2 LT ISZERO PUSH2 0x1051 JUMPI PUSH2 0x1046 PUSH1 0x0 DUP3 PUSH2 0x101A JUMP JUMPDEST PUSH1 0x1 DUP2 ADD SWAP1 POP PUSH2 0x1033 JUMP JUMPDEST POP POP JUMP JUMPDEST PUSH1 0x1F DUP3 GT ISZERO PUSH2 0x1096 JUMPI PUSH2 0x1067 DUP2 PUSH2 0xF36 JUMP JUMPDEST PUSH2 0x1070 DUP5 PUSH2 0xF4B JUMP JUMPDEST DUP2 ADD PUSH1 0x20 DUP6 LT ISZERO PUSH2 0x107F JUMPI DUP2 SWAP1 POP JUMPDEST PUSH2 0x1093 PUSH2 0x108B DUP6 PUSH2 0xF4B JUMP JUMPDEST DUP4 ADD DUP3 PUSH2 0x1032 JUMP JUMPDEST POP POP JUMPDEST POP POP POP JUMP JUMPDEST PUSH1 0x0 DUP3 DUP3 SHR SWAP1 POP SWAP3 SWAP2 POP POP JUMP JUMPDEST PUSH1 0x0 PUSH2 0x10B9 PUSH1 0x0 NOT DUP5 PUSH1 0x8 MUL PUSH2 0x109B JUMP JUMPDEST NOT DUP1 DUP4 AND SWAP2 POP POP SWAP3 SWAP2 POP POP JUMP JUMPDEST PUSH1 0x0 PUSH2 0x10D2 DUP4 DUP4 PUSH2 0x10A8 JUMP JUMPDEST SWAP2 POP DUP3 PUSH1 0x2 MUL DUP3 OR SWAP1 POP SWAP3 SWAP2 POP POP JUMP JUMPDEST PUSH2 0x10EB DUP3 PUSH2 0xB7C JUMP JUMPDEST PUSH8 0xFFFFFFFFFFFFFFFF DUP2 GT ISZERO PUSH2 0x1104 JUMPI PUSH2 0x1103 PUSH2 0x967 JUMP JUMPDEST JUMPDEST PUSH2 0x110E DUP3 SLOAD PUSH2 0xF05 JUMP JUMPDEST PUSH2 0x1119 DUP3 DUP3 DUP6 PUSH2 0x1055 JUMP JUMPDEST PUSH1 0x0 PUSH1 0x20 SWAP1 POP PUSH1 0x1F DUP4 GT PUSH1 0x1 DUP2 EQ PUSH2 0x114C JUMPI PUSH1 0x0 DUP5 ISZERO PUSH2 0x113A JUMPI DUP3 DUP8 ADD MLOAD SWAP1 POP JUMPDEST PUSH2 0x1144 DUP6 DUP3 PUSH2 0x10C6 JUMP JUMPDEST DUP7 SSTORE POP PUSH2 0x11AC JUMP JUMPDEST PUSH1 0x1F NOT DUP5 AND PUSH2 0x115A DUP7 PUSH2 0xF36 JUMP JUMPDEST PUSH1 0x0 JUMPDEST DUP3 DUP2 LT ISZERO PUSH2 0x1182 JUMPI DUP5 DUP10 ADD MLOAD DUP3 SSTORE PUSH1 0x1 DUP3 ADD SWAP2 POP PUSH1 0x20 DUP6 ADD SWAP5 POP PUSH1 0x20 DUP2 ADD SWAP1 POP PUSH2 0x115D JUMP JUMPDEST DUP7 DUP4 LT ISZERO PUSH2 0x119F JUMPI DUP5 DUP10 ADD MLOAD PUSH2 0x119B PUSH1 0x1F DUP10 AND DUP3 PUSH2 0x10A8 JUMP JUMPDEST DUP4 SSTORE POP JUMPDEST PUSH1 0x1 PUSH1 0x2 DUP9 MUL ADD DUP9 SSTORE POP POP POP JUMPDEST POP POP POP POP POP POP JUMP JUMPDEST PUSH32 0x4E6F207375636820656C656D656E742063616E20657869737400000000000000 PUSH1 0x0 DUP3 ADD MSTORE POP JUMP JUMPDEST PUSH1 0x0 PUSH2 0x11EA PUSH1 0x19 DUP4 PUSH2 0xB87 JUMP JUMPDEST SWAP2 POP PUSH2 0x11F5 DUP3 PUSH2 0x11B4 JUMP JUMPDEST PUSH1 0x20 DUP3 ADD SWAP1 POP SWAP2 SWAP1 POP JUMP JUMPDEST PUSH1 0x0 PUSH1 0x20 DUP3 ADD SWAP1 POP DUP2 DUP2 SUB PUSH1 0x0 DUP4 ADD MSTORE PUSH2 0x1219 DUP2 PUSH2 0x11DD JUMP JUMPDEST SWAP1 POP SWAP2 SWAP1 POP JUMP JUMPDEST PUSH32 0x4E487B7100000000000000000000000000000000000000000000000000000000 PUSH1 0x0 MSTORE PUSH1 0x11 PUSH1 0x4 MSTORE PUSH1 0x24 PUSH1 0x0 REVERT JUMPDEST PUSH1 0x0 PUSH2 0x125A DUP3 PUSH2 0xB0A JUMP JUMPDEST SWAP2 POP PUSH32 0xFFFFFFFFFFFFFFFFFFFFFFFFFFFFFFFFFFFFFFFFFFFFFFFFFFFFFFFFFFFFFFFF DUP3 SUB PUSH2 0x128C JUMPI PUSH2 0x128B PUSH2 0x1220 JUMP JUMPDEST JUMPDEST PUSH1 0x1 DUP3 ADD SWAP1 POP SWAP2 SWAP1 POP JUMP JUMPDEST PUSH1 0x0 PUSH2 0x12A2 DUP3 PUSH2 0xB0A JUMP JUMPDEST SWAP2 POP PUSH2 0x12AD DUP4 PUSH2 0xB0A JUMP JUMPDEST SWAP3 POP DUP3 DUP3 SUB SWAP1 POP DUP2 DUP2 GT ISZERO PUSH2 0x12C5 JUMPI PUSH2 0x12C4 PUSH2 0x1220 JUMP JUMPDEST JUMPDEST SWAP3 SWAP2 POP POP JUMP JUMPDEST PUSH1 0x0 PUSH2 0x12D6 DUP3 PUSH2 0xB0A JUMP JUMPDEST SWAP2 POP PUSH2 0x12E1 DUP4 PUSH2 0xB0A JUMP JUMPDEST SWAP3 POP DUP3 DUP3 ADD SWAP1 POP DUP1 DUP3 GT ISZERO PUSH2 0x12F9 JUMPI PUSH2 0x12F8 PUSH2 0x1220 JUMP JUMPDEST JUMPDEST SWAP3 SWAP2 POP POP JUMP JUMPDEST PUSH32 0x4E487B7100000000000000000000000000000000000000000000000000000000 PUSH1 0x0 MSTORE PUSH1 0x32 PUSH1 0x4 MSTORE PUSH1 0x24 PUSH1 0x0 REVERT JUMPDEST PUSH1 0x0 DUP2 SLOAD SWAP1 POP PUSH2 0x133D DUP2 PUSH2 0xF05 JUMP JUMPDEST SWAP1 POP SWAP2 SWAP1 POP JUMP JUMPDEST DUP2 DUP2 SUB PUSH2 0x1352 JUMPI POP POP PUSH2 0x142A JUMP JUMPDEST PUSH2 0x135B DUP3 PUSH2 0x132E JUMP JUMPDEST PUSH8 0xFFFFFFFFFFFFFFFF DUP2 GT ISZERO PUSH2 0x1374 JUMPI PUSH2 0x1373 PUSH2 0x967 JUMP JUMPDEST JUMPDEST PUSH2 0x137E DUP3 SLOAD PUSH2 0xF05 JUMP JUMPDEST PUSH2 0x1389 DUP3 DUP3 DUP6 PUSH2 0x1055 JUMP JUMPDEST PUSH1 0x0 PUSH1 0x1F DUP4 GT PUSH1 0x1 DUP2 EQ PUSH2 0x13B8 JUMPI PUSH1 0x0 DUP5 ISZERO PUSH2 0x13A6 JUMPI DUP3 DUP8 ADD SLOAD SWAP1 POP JUMPDEST PUSH2 0x13B0 DUP6 DUP3 PUSH2 0x10C6 JUMP JUMPDEST DUP7 SSTORE POP PUSH2 0x1423 JUMP JUMPDEST PUSH1 0x1F NOT DUP5 AND PUSH2 0x13C6 DUP8 PUSH2 0xF36 JUMP JUMPDEST SWAP7 POP PUSH2 0x13D1 DUP7 PUSH2 0xF36 JUMP JUMPDEST PUSH1 0x0 JUMPDEST DUP3 DUP2 LT ISZERO PUSH2 0x13F9 JUMPI DUP5 DUP10 ADD SLOAD DUP3 SSTORE PUSH1 0x1 DUP3 ADD SWAP2 POP PUSH1 0x1 DUP6 ADD SWAP5 POP PUSH1 0x20 DUP2 ADD SWAP1 POP PUSH2 0x13D4 JUMP JUMPDEST DUP7 DUP4 LT ISZERO PUSH2 0x1416 JUMPI DUP5 DUP10 ADD SLOAD PUSH2 0x1412 PUSH1 0x1F DUP10 AND DUP3 PUSH2 0x10A8 JUMP JUMPDEST DUP4 SSTORE POP JUMPDEST PUSH1 0x1 PUSH1 0x2 DUP9 MUL ADD DUP9 SSTORE POP POP POP JUMPDEST POP POP POP POP POP POP JUMPDEST JUMP JUMPDEST PUSH32 0x4E487B7100000000000000000000000000000000000000000000000000000000 PUSH1 0x0 MSTORE PUSH1 0x31 PUSH1 0x4 MSTORE PUSH1 0x24 PUSH1 0x0 REVERT INVALID LOG2 PUSH5 0x6970667358 0x22 SLT KECCAK256 0xD6 PUSH15 0x512B1AE6C49647DD040AE486ED9E7C EXTCODESIZE SWAP6 0xE1 DUP7 PUSH19 0x17430B8DC71562620E5064736F6C6343000811 STOP CALLER "},"methodIdentifiers":{"_ids()":"479e46a2","array(uint256)":"38d94193","create(string,string)":"198e2b8a","deleteData(uint256)":"4fe8b4c1","get()":"6d4ce63c","owner()":"8da5cb5b","update(uint256,string,string)":"f95e0a54"}}}}}