{"contracts/Crud.sol":{"CRUD":{"abi":[{"inputs":[],"stateMutability":"nonpayable","type":"constructor"},{"inputs":[],"name":"_ids","outputs":[{"internalType":"uint256","name":"_value","type":"uint256"}],"stateMutability":"view","type":"function"},{"inputs":[{"internalType":"uint256","name":"","type":"uint256"}],"name":"array","outputs":[{"internalType":"uint256","name":"id","type":"uint256"},{"internalType":"string","name":"name","type":"string"},{"internalType":"string","name":"email","type":"string"}],"stateMutability":"view","type":"function"},{"inputs":[{"internalType":"string","name":"_name","type":"string"},{"internalType":"string","name":"_email","type":"string"}],"name":"create","outputs":[],"stateMutability":"nonpayable","type":"function"},{"inputs":[{"internalType":"uint256","name":"_id","type":"uint256"}],"name":"deleteData","outputs":[],"stateMutability":"nonpayable","type":"function"},{"inputs":[],"name":"get","outputs":[{"components":[{"internalType":"uint256","name":"id","type":"uint256"},{"internalType":"string","name":"name","type":"string"},{"internalType":"string","name":"email","type":"string"}],"internalType":"struct CRUD.Data[]","name":"","type":"tuple[]"}],"stateMutability":"view","type":"function"},{"inputs":[],"name":"owner","outputs":[{"internalType":"address","name":"","type":"address"}],"stateMutability":"view","type":"function"},{"inputs":[{"internalType":"uint256","name":"_id","type":"uint256"},{"internalType":"string","name":"_name","type":"string"},{"internalType":"string","name":"_email","type":"string"}],"name":"update","outputs":[],"stateMutability":"nonpayable","type":"function"}],"evm":{"bytecode":{"linkReferences":{},"object":"608060405234801561001057600080fd5b50336000806101000a81548173ffffffffffffffffffffffffffffffffffffffff021916908373ffffffffffffffffffffffffffffffffffffffff1602179055506115d5806100606000396000f3fe608060405234801561001057600080fd5b506004361061007d5760003560e01c80634fe8b4c11161005b5780634fe8b4c1146100ee5780636d4ce63c1461010a5780638da5cb5b14610128578063f95e0a54146101465761007d565b8063198e2b8a1461008257806338d941931461009e578063479e46a2146100d0575b600080fd5b61009c60048036038101906100979190610b6a565b610162565b005b6100b860048036038101906100b39190610c18565b61028b565b6040516100c793929190610cd3565b60405180910390f35b6100d86103d5565b6040516100e59190610d18565b60405180910390f35b61010860048036038101906101039190610c18565b6103e1565b005b6101126105f4565b60405161011f9190610ea5565b60405180910390f35b61013061080f565b60405161013d9190610f08565b60405180910390f35b610160600480360381019061015b9190610f23565b610833565b005b60008054906101000a900473ffffffffffffffffffffffffffffffffffffffff1673ffffffffffffffffffffffffffffffffffffffff163373ffffffffffffffffffffffffffffffffffffffff16146101f0576040517f08c379a00000000000000000000000000000000000000000000000000000000081526004016101e790610ffa565b60405180910390fd5b6101fa600161098f565b6000604051806060016040528061021160016109a5565b8152602001848152602001838152509050600281908060018154018082558091505060019003906000526020600020906003020160009091909190915060008201518160000155602082015181600101908161026d9190611226565b5060408201518160020190816102839190611226565b505050505050565b6002818154811061029b57600080fd5b90600052602060002090600302016000915090508060000154908060010180546102c490611049565b80601f01602080910402602001604051908101604052809291908181526020018280546102f090611049565b801561033d5780601f106103125761010080835404028352916020019161033d565b820191906000526020600020905b81548152906001019060200180831161032057829003601f168201915b50505050509080600201805461035290611049565b80601f016020809104026020016040519081016040528092919081815260200182805461037e90611049565b80156103cb5780601f106103a0576101008083540402835291602001916103cb565b820191906000526020600020905b8154815290600101906020018083116103ae57829003601f168201915b5050505050905083565b60018060000154905081565b60008054906101000a900473ffffffffffffffffffffffffffffffffffffffff1673ffffffffffffffffffffffffffffffffffffffff163373ffffffffffffffffffffffffffffffffffffffff161461046f576040517f08c379a000000000000000000000000000000000000000000000000000000000815260040161046690610ffa565b60405180910390fd5b6002805490508111156104b7576040517f08c379a00000000000000000000000000000000000000000000000000000000081526004016104ae90611344565b60405180910390fd5b600080600090505b6002805490508110156104e25780915080806104da90611393565b9150506104bf565b5060008190505b60016002805490506104fb91906113db565b81101561059c576002600182610511919061140f565b8154811061052257610521611443565b5b90600052602060002090600302016002828154811061054457610543611443565b5b906000526020600020906003020160008201548160000155600182018160010190816105709190611488565b50600282018160020190816105859190611488565b50905050808061059490611393565b9150506104e9565b5060028054806105af576105ae611570565b5b60019003818190600052602060002090600302016000808201600090556001820160006105dc91906109b3565b6002820160006105ec91906109b3565b505090555050565b606060008054906101000a900473ffffffffffffffffffffffffffffffffffffffff1673ffffffffffffffffffffffffffffffffffffffff163373ffffffffffffffffffffffffffffffffffffffff1614610684576040517f08c379a000000000000000000000000000000000000000000000000000000000815260040161067b90610ffa565b60405180910390fd5b6002805480602002602001604051908101604052809291908181526020016000905b828210156108065783829060005260206000209060030201604051806060016040529081600082015481526020016001820180546106e390611049565b80601f016020809104026020016040519081016040528092919081815260200182805461070f90611049565b801561075c5780601f106107315761010080835404028352916020019161075c565b820191906000526020600020905b81548152906001019060200180831161073f57829003601f168201915b5050505050815260200160028201805461077590611049565b80601f01602080910402602001604051908101604052809291908181526020018280546107a190611049565b80156107ee5780601f106107c3576101008083540402835291602001916107ee565b820191906000526020600020905b8154815290600101906020018083116107d157829003601f168201915b505050505081525050815260200190600101906106a6565b50505050905090565b60008054906101000a900473ffffffffffffffffffffffffffffffffffffffff1681565b60008054906101000a900473ffffffffffffffffffffffffffffffffffffffff1673ffffffffffffffffffffffffffffffffffffffff163373ffffffffffffffffffffffffffffffffffffffff16146108c1576040517f08c379a00000000000000000000000000000000000000000000000000000000081526004016108b890610ffa565b60405180910390fd5b6002805490508311156108d357600080fd5b60005b6002805490508110156109895783600282815481106108f8576108f7611443565b5b9060005260206000209060030201600001540361097657826002828154811061092457610923611443565b5b906000526020600020906003020160010190816109419190611226565b50816002828154811061095757610956611443565b5b906000526020600020906003020160020190816109749190611226565b505b808061098190611393565b9150506108d6565b50505050565b6001816000016000828254019250508190555050565b600081600001549050919050565b5080546109bf90611049565b6000825580601f106109d157506109f0565b601f0160209004906000526020600020908101906109ef91906109f3565b5b50565b5b80821115610a0c5760008160009055506001016109f4565b5090565b6000604051905090565b600080fd5b600080fd5b600080fd5b600080fd5b6000601f19601f8301169050919050565b7f4e487b7100000000000000000000000000000000000000000000000000000000600052604160045260246000fd5b610a7782610a2e565b810181811067ffffffffffffffff82111715610a9657610a95610a3f565b5b80604052505050565b6000610aa9610a10565b9050610ab58282610a6e565b919050565b600067ffffffffffffffff821115610ad557610ad4610a3f565b5b610ade82610a2e565b9050602081019050919050565b82818337600083830152505050565b6000610b0d610b0884610aba565b610a9f565b905082815260208101848484011115610b2957610b28610a29565b5b610b34848285610aeb565b509392505050565b600082601f830112610b5157610b50610a24565b5b8135610b61848260208601610afa565b91505092915050565b60008060408385031215610b8157610b80610a1a565b5b600083013567ffffffffffffffff811115610b9f57610b9e610a1f565b5b610bab85828601610b3c565b925050602083013567ffffffffffffffff811115610bcc57610bcb610a1f565b5b610bd885828601610b3c565b9150509250929050565b6000819050919050565b610bf581610be2565b8114610c0057600080fd5b50565b600081359050610c1281610bec565b92915050565b600060208284031215610c2e57610c2d610a1a565b5b6000610c3c84828501610c03565b91505092915050565b610c4e81610be2565b82525050565b600081519050919050565b600082825260208201905092915050565b60005b83811015610c8e578082015181840152602081019050610c73565b60008484015250505050565b6000610ca582610c54565b610caf8185610c5f565b9350610cbf818560208601610c70565b610cc881610a2e565b840191505092915050565b6000606082019050610ce86000830186610c45565b8181036020830152610cfa8185610c9a565b90508181036040830152610d0e8184610c9a565b9050949350505050565b6000602082019050610d2d6000830184610c45565b92915050565b600081519050919050565b600082825260208201905092915050565b6000819050602082019050919050565b610d6881610be2565b82525050565b600082825260208201905092915050565b6000610d8a82610c54565b610d948185610d6e565b9350610da4818560208601610c70565b610dad81610a2e565b840191505092915050565b6000606083016000830151610dd06000860182610d5f565b5060208301518482036020860152610de88282610d7f565b91505060408301518482036040860152610e028282610d7f565b9150508091505092915050565b6000610e1b8383610db8565b905092915050565b6000602082019050919050565b6000610e3b82610d33565b610e458185610d3e565b935083602082028501610e5785610d4f565b8060005b85811015610e935784840389528151610e748582610e0f565b9450610e7f83610e23565b925060208a01995050600181019050610e5b565b50829750879550505050505092915050565b60006020820190508181036000830152610ebf8184610e30565b905092915050565b600073ffffffffffffffffffffffffffffffffffffffff82169050919050565b6000610ef282610ec7565b9050919050565b610f0281610ee7565b82525050565b6000602082019050610f1d6000830184610ef9565b92915050565b600080600060608486031215610f3c57610f3b610a1a565b5b6000610f4a86828701610c03565b935050602084013567ffffffffffffffff811115610f6b57610f6a610a1f565b5b610f7786828701610b3c565b925050604084013567ffffffffffffffff811115610f9857610f97610a1f565b5b610fa486828701610b3c565b9150509250925092565b7f4f776e6572207265717569726564000000000000000000000000000000000000600082015250565b6000610fe4600e83610c5f565b9150610fef82610fae565b602082019050919050565b6000602082019050818103600083015261101381610fd7565b9050919050565b7f4e487b7100000000000000000000000000000000000000000000000000000000600052602260045260246000fd5b6000600282049050600182168061106157607f821691505b6020821081036110745761107361101a565b5b50919050565b60008190508160005260206000209050919050565b60006020601f8301049050919050565b600082821b905092915050565b6000600883026110dc7fffffffffffffffffffffffffffffffffffffffffffffffffffffffffffffffff8261109f565b6110e6868361109f565b95508019841693508086168417925050509392505050565b6000819050919050565b600061112361111e61111984610be2565b6110fe565b610be2565b9050919050565b6000819050919050565b61113d83611108565b6111516111498261112a565b8484546110ac565b825550505050565b600090565b611166611159565b611171818484611134565b505050565b5b818110156111955761118a60008261115e565b600181019050611177565b5050565b601f8211156111da576111ab8161107a565b6111b48461108f565b810160208510156111c3578190505b6111d76111cf8561108f565b830182611176565b50505b505050565b600082821c905092915050565b60006111fd600019846008026111df565b1980831691505092915050565b600061121683836111ec565b9150826002028217905092915050565b61122f82610c54565b67ffffffffffffffff81111561124857611247610a3f565b5b6112528254611049565b61125d828285611199565b600060209050601f831160018114611290576000841561127e578287015190505b611288858261120a565b8655506112f0565b601f19841661129e8661107a565b60005b828110156112c6578489015182556001820191506020850194506020810190506112a1565b868310156112e357848901516112df601f8916826111ec565b8355505b6001600288020188555050505b505050505050565b7f4e6f207375636820656c656d656e742063616e20657869737400000000000000600082015250565b600061132e601983610c5f565b9150611339826112f8565b602082019050919050565b6000602082019050818103600083015261135d81611321565b9050919050565b7f4e487b7100000000000000000000000000000000000000000000000000000000600052601160045260246000fd5b600061139e82610be2565b91507fffffffffffffffffffffffffffffffffffffffffffffffffffffffffffffffff82036113d0576113cf611364565b5b600182019050919050565b60006113e682610be2565b91506113f183610be2565b925082820390508181111561140957611408611364565b5b92915050565b600061141a82610be2565b915061142583610be2565b925082820190508082111561143d5761143c611364565b5b92915050565b7f4e487b7100000000000000000000000000000000000000000000000000000000600052603260045260246000fd5b60008154905061148181611049565b9050919050565b81810361149657505061156e565b61149f82611472565b67ffffffffffffffff8111156114b8576114b7610a3f565b5b6114c28254611049565b6114cd828285611199565b6000601f8311600181146114fc57600084156114ea578287015490505b6114f4858261120a565b865550611567565b601f19841661150a8761107a565b96506115158661107a565b60005b8281101561153d57848901548255600182019150600185019450602081019050611518565b8683101561155a5784890154611556601f8916826111ec565b8355505b6001600288020188555050505b5050505050505b565b7f4e487b7100000000000000000000000000000000000000000000000000000000600052603160045260246000fdfea2646970667358221220085dd6668ce12e4a806d83642529832518818a0400fd932e4eb6792caea1942c64736f6c63430008110033","opcodes":"PUSH1 0x80 PUSH1 0x40 MSTORE CALLVALUE DUP1 ISZERO PUSH2 0x10 JUMPI PUSH1 0x0 DUP1 REVERT JUMPDEST POP CALLER PUSH1 0x0 DUP1 PUSH2 0x100 EXP DUP2 SLOAD DUP2 PUSH20 0xFFFFFFFFFFFFFFFFFFFFFFFFFFFFFFFFFFFFFFFF MUL NOT AND SWAP1 DUP4 PUSH20 0xFFFFFFFFFFFFFFFFFFFFFFFFFFFFFFFFFFFFFFFF AND MUL OR SWAP1 SSTORE POP PUSH2 0x15D5 DUP1 PUSH2 0x60 PUSH1 0x0 CODECOPY PUSH1 0x0 RETURN INVALID PUSH1 0x80 PUSH1 0x40 MSTORE CALLVALUE DUP1 ISZERO PUSH2 0x10 JUMPI PUSH1 0x0 DUP1 REVERT JUMPDEST POP PUSH1 0x4 CALLDATASIZE LT PUSH2 0x7D JUMPI PUSH1 0x0 CALLDATALOAD PUSH1 0xE0 SHR DUP1 PUSH4 0x4FE8B4C1 GT PUSH2 0x5B JUMPI DUP1 PUSH4 0x4FE8B4C1 EQ PUSH2 0xEE JUMPI DUP1 PUSH4 0x6D4CE63C EQ PUSH2 0x10A JUMPI DUP1 PUSH4 0x8DA5CB5B EQ PUSH2 0x128 JUMPI DUP1 PUSH4 0xF95E0A54 EQ PUSH2 0x146 JUMPI PUSH2 0x7D JUMP JUMPDEST DUP1 PUSH4 0x198E2B8A EQ PUSH2 0x82 JUMPI DUP1 PUSH4 0x38D94193 EQ PUSH2 0x9E JUMPI DUP1 PUSH4 0x479E46A2 EQ PUSH2 0xD0 JUMPI JUMPDEST PUSH1 0x0 DUP1 REVERT JUMPDEST PUSH2 0x9C PUSH1 0x4 DUP1 CALLDATASIZE SUB DUP2 ADD SWAP1 PUSH2 0x97 SWAP2 SWAP1 PUSH2 0xB6A JUMP JUMPDEST PUSH2 0x162 JUMP JUMPDEST STOP JUMPDEST PUSH2 0xB8 PUSH1 0x4 DUP1 CALLDATASIZE SUB DUP2 ADD SWAP1 PUSH2 0xB3 SWAP2 SWAP1 PUSH2 0xC18 JUMP JUMPDEST PUSH2 0x28B JUMP JUMPDEST PUSH1 0x40 MLOAD PUSH2 0xC7 SWAP4 SWAP3 SWAP2 SWAP1 PUSH2 0xCD3 JUMP JUMPDEST PUSH1 0x40 MLOAD DUP1 SWAP2 SUB SWAP1 RETURN JUMPDEST PUSH2 0xD8 PUSH2 0x3D5 JUMP JUMPDEST PUSH1 0x40 MLOAD PUSH2 0xE5 SWAP2 SWAP1 PUSH2 0xD18 JUMP JUMPDEST PUSH1 0x40 MLOAD DUP1 SWAP2 SUB SWAP1 RETURN JUMPDEST PUSH2 0x108 PUSH1 0x4 DUP1 CALLDATASIZE SUB DUP2 ADD SWAP1 PUSH2 0x103 SWAP2 SWAP1 PUSH2 0xC18 JUMP JUMPDEST PUSH2 0x3E1 JUMP JUMPDEST STOP JUMPDEST PUSH2 0x112 PUSH2 0x5F4 JUMP JUMPDEST PUSH1 0x40 MLOAD PUSH2 0x11F SWAP2 SWAP1 PUSH2 0xEA5 JUMP JUMPDEST PUSH1 0x40 MLOAD DUP1 SWAP2 SUB SWAP1 RETURN JUMPDEST PUSH2 0x130 PUSH2 0x80F JUMP JUMPDEST PUSH1 0x40 MLOAD PUSH2 0x13D SWAP2 SWAP1 PUSH2 0xF08 JUMP JUMPDEST PUSH1 0x40 MLOAD DUP1 SWAP2 SUB SWAP1 RETURN JUMPDEST PUSH2 0x160 PUSH1 0x4 DUP1 CALLDATASIZE SUB DUP2 ADD SWAP1 PUSH2 0x15B SWAP2 SWAP1 PUSH2 0xF23 JUMP JUMPDEST PUSH2 0x833 JUMP JUMPDEST STOP JUMPDEST PUSH1 0x0 DUP1 SLOAD SWAP1 PUSH2 0x100 EXP SWAP1 DIV PUSH20 0xFFFFFFFFFFFFFFFFFFFFFFFFFFFFFFFFFFFFFFFF AND PUSH20 0xFFFFFFFFFFFFFFFFFFFFFFFFFFFFFFFFFFFFFFFF AND CALLER PUSH20 0xFFFFFFFFFFFFFFFFFFFFFFFFFFFFFFFFFFFFFFFF AND EQ PUSH2 0x1F0 JUMPI PUSH1 0x40 MLOAD PUSH32 0x8C379A000000000000000000000000000000000000000000000000000000000 DUP2 MSTORE PUSH1 0x4 ADD PUSH2 0x1E7 SWAP1 PUSH2 0xFFA JUMP JUMPDEST PUSH1 0x40 MLOAD DUP1 SWAP2 SUB SWAP1 REVERT JUMPDEST PUSH2 0x1FA PUSH1 0x1 PUSH2 0x98F JUMP JUMPDEST PUSH1 0x0 PUSH1 0x40 MLOAD DUP1 PUSH1 0x60 ADD PUSH1 0x40 MSTORE DUP1 PUSH2 0x211 PUSH1 0x1 PUSH2 0x9A5 JUMP JUMPDEST DUP2 MSTORE PUSH1 0x20 ADD DUP5 DUP2 MSTORE PUSH1 0x20 ADD DUP4 DUP2 MSTORE POP SWAP1 POP PUSH1 0x2 DUP2 SWAP1 DUP1 PUSH1 0x1 DUP2 SLOAD ADD DUP1 DUP3 SSTORE DUP1 SWAP2 POP POP PUSH1 0x1 SWAP1 SUB SWAP1 PUSH1 0x0 MSTORE PUSH1 0x20 PUSH1 0x0 KECCAK256 SWAP1 PUSH1 0x3 MUL ADD PUSH1 0x0 SWAP1 SWAP2 SWAP1 SWAP2 SWAP1 SWAP2 POP PUSH1 0x0 DUP3 ADD MLOAD DUP2 PUSH1 0x0 ADD SSTORE PUSH1 0x20 DUP3 ADD MLOAD DUP2 PUSH1 0x1 ADD SWAP1 DUP2 PUSH2 0x26D SWAP2 SWAP1 PUSH2 0x1226 JUMP JUMPDEST POP PUSH1 0x40 DUP3 ADD MLOAD DUP2 PUSH1 0x2 ADD SWAP1 DUP2 PUSH2 0x283 SWAP2 SWAP1 PUSH2 0x1226 JUMP JUMPDEST POP POP POP POP POP POP JUMP JUMPDEST PUSH1 0x2 DUP2 DUP2 SLOAD DUP2 LT PUSH2 0x29B JUMPI PUSH1 0x0 DUP1 REVERT JUMPDEST SWAP1 PUSH1 0x0 MSTORE PUSH1 0x20 PUSH1 0x0 KECCAK256 SWAP1 PUSH1 0x3 MUL ADD PUSH1 0x0 SWAP2 POP SWAP1 POP DUP1 PUSH1 0x0 ADD SLOAD SWAP1 DUP1 PUSH1 0x1 ADD DUP1 SLOAD PUSH2 0x2C4 SWAP1 PUSH2 0x1049 JUMP JUMPDEST DUP1 PUSH1 0x1F ADD PUSH1 0x20 DUP1 SWAP2 DIV MUL PUSH1 0x20 ADD PUSH1 0x40 MLOAD SWAP1 DUP2 ADD PUSH1 0x40 MSTORE DUP1 SWAP3 SWAP2 SWAP1 DUP2 DUP2 MSTORE PUSH1 0x20 ADD DUP3 DUP1 SLOAD PUSH2 0x2F0 SWAP1 PUSH2 0x1049 JUMP JUMPDEST DUP1 ISZERO PUSH2 0x33D JUMPI DUP1 PUSH1 0x1F LT PUSH2 0x312 JUMPI PUSH2 0x100 DUP1 DUP4 SLOAD DIV MUL DUP4 MSTORE SWAP2 PUSH1 0x20 ADD SWAP2 PUSH2 0x33D JUMP JUMPDEST DUP3 ADD SWAP2 SWAP1 PUSH1 0x0 MSTORE PUSH1 0x20 PUSH1 0x0 KECCAK256 SWAP1 JUMPDEST DUP2 SLOAD DUP2 MSTORE SWAP1 PUSH1 0x1 ADD SWAP1 PUSH1 0x20 ADD DUP1 DUP4 GT PUSH2 0x320 JUMPI DUP3 SWAP1 SUB PUSH1 0x1F AND DUP3 ADD SWAP2 JUMPDEST POP POP POP POP POP SWAP1 DUP1 PUSH1 0x2 ADD DUP1 SLOAD PUSH2 0x352 SWAP1 PUSH2 0x1049 JUMP JUMPDEST DUP1 PUSH1 0x1F ADD PUSH1 0x20 DUP1 SWAP2 DIV MUL PUSH1 0x20 ADD PUSH1 0x40 MLOAD SWAP1 DUP2 ADD PUSH1 0x40 MSTORE DUP1 SWAP3 SWAP2 SWAP1 DUP2 DUP2 MSTORE PUSH1 0x20 ADD DUP3 DUP1 SLOAD PUSH2 0x37E SWAP1 PUSH2 0x1049 JUMP JUMPDEST DUP1 ISZERO PUSH2 0x3CB JUMPI DUP1 PUSH1 0x1F LT PUSH2 0x3A0 JUMPI PUSH2 0x100 DUP1 DUP4 SLOAD DIV MUL DUP4 MSTORE SWAP2 PUSH1 0x20 ADD SWAP2 PUSH2 0x3CB JUMP JUMPDEST DUP3 ADD SWAP2 SWAP1 PUSH1 0x0 MSTORE PUSH1 0x20 PUSH1 0x0 KECCAK256 SWAP1 JUMPDEST DUP2 SLOAD DUP2 MSTORE SWAP1 PUSH1 0x1 ADD SWAP1 PUSH1 0x20 ADD DUP1 DUP4 GT PUSH2 0x3AE JUMPI DUP3 SWAP1 SUB PUSH1 0x1F AND DUP3 ADD SWAP2 JUMPDEST POP POP POP POP POP SWAP1 POP DUP4 JUMP JUMPDEST PUSH1 0x1 DUP1 PUSH1 0x0 ADD SLOAD SWAP1 POP DUP2 JUMP JUMPDEST PUSH1 0x0 DUP1 SLOAD SWAP1 PUSH2 0x100 EXP SWAP1 DIV PUSH20 0xFFFFFFFFFFFFFFFFFFFFFFFFFFFFFFFFFFFFFFFF AND PUSH20 0xFFFFFFFFFFFFFFFFFFFFFFFFFFFFFFFFFFFFFFFF AND CALLER PUSH20 0xFFFFFFFFFFFFFFFFFFFFFFFFFFFFFFFFFFFFFFFF AND EQ PUSH2 0x46F JUMPI PUSH1 0x40 MLOAD PUSH32 0x8C379A000000000000000000000000000000000000000000000000000000000 DUP2 MSTORE PUSH1 0x4 ADD PUSH2 0x466 SWAP1 PUSH2 0xFFA JUMP JUMPDEST PUSH1 0x40 MLOAD DUP1 SWAP2 SUB SWAP1 REVERT JUMPDEST PUSH1 0x2 DUP1 SLOAD SWAP1 POP DUP2 GT ISZERO PUSH2 0x4B7 JUMPI PUSH1 0x40 MLOAD PUSH32 0x8C379A000000000000000000000000000000000000000000000000000000000 DUP2 MSTORE PUSH1 0x4 ADD PUSH2 0x4AE SWAP1 PUSH2 0x1344 JUMP JUMPDEST PUSH1 0x40 MLOAD DUP1 SWAP2 SUB SWAP1 REVERT JUMPDEST PUSH1 0x0 DUP1 PUSH1 0x0 SWAP1 POP JUMPDEST PUSH1 0x2 DUP1 SLOAD SWAP1 POP DUP2 LT ISZERO PUSH2 0x4E2 JUMPI DUP1 SWAP2 POP DUP1 DUP1 PUSH2 0x4DA SWAP1 PUSH2 0x1393 JUMP JUMPDEST SWAP2 POP POP PUSH2 0x4BF JUMP JUMPDEST POP PUSH1 0x0 DUP2 SWAP1 POP JUMPDEST PUSH1 0x1 PUSH1 0x2 DUP1 SLOAD SWAP1 POP PUSH2 0x4FB SWAP2 SWAP1 PUSH2 0x13DB JUMP JUMPDEST DUP2 LT ISZERO PUSH2 0x59C JUMPI PUSH1 0x2 PUSH1 0x1 DUP3 PUSH2 0x511 SWAP2 SWAP1 PUSH2 0x140F JUMP JUMPDEST DUP2 SLOAD DUP2 LT PUSH2 0x522 JUMPI PUSH2 0x521 PUSH2 0x1443 JUMP JUMPDEST JUMPDEST SWAP1 PUSH1 0x0 MSTORE PUSH1 0x20 PUSH1 0x0 KECCAK256 SWAP1 PUSH1 0x3 MUL ADD PUSH1 0x2 DUP3 DUP2 SLOAD DUP2 LT PUSH2 0x544 JUMPI PUSH2 0x543 PUSH2 0x1443 JUMP JUMPDEST JUMPDEST SWAP1 PUSH1 0x0 MSTORE PUSH1 0x20 PUSH1 0x0 KECCAK256 SWAP1 PUSH1 0x3 MUL ADD PUSH1 0x0 DUP3 ADD SLOAD DUP2 PUSH1 0x0 ADD SSTORE PUSH1 0x1 DUP3 ADD DUP2 PUSH1 0x1 ADD SWAP1 DUP2 PUSH2 0x570 SWAP2 SWAP1 PUSH2 0x1488 JUMP JUMPDEST POP PUSH1 0x2 DUP3 ADD DUP2 PUSH1 0x2 ADD SWAP1 DUP2 PUSH2 0x585 SWAP2 SWAP1 PUSH2 0x1488 JUMP JUMPDEST POP SWAP1 POP POP DUP1 DUP1 PUSH2 0x594 SWAP1 PUSH2 0x1393 JUMP JUMPDEST SWAP2 POP POP PUSH2 0x4E9 JUMP JUMPDEST POP PUSH1 0x2 DUP1 SLOAD DUP1 PUSH2 0x5AF JUMPI PUSH2 0x5AE PUSH2 0x1570 JUMP JUMPDEST JUMPDEST PUSH1 0x1 SWAP1 SUB DUP2 DUP2 SWAP1 PUSH1 0x0 MSTORE PUSH1 0x20 PUSH1 0x0 KECCAK256 SWAP1 PUSH1 0x3 MUL ADD PUSH1 0x0 DUP1 DUP3 ADD PUSH1 0x0 SWAP1 SSTORE PUSH1 0x1 DUP3 ADD PUSH1 0x0 PUSH2 0x5DC SWAP2 SWAP1 PUSH2 0x9B3 JUMP JUMPDEST PUSH1 0x2 DUP3 ADD PUSH1 0x0 PUSH2 0x5EC SWAP2 SWAP1 PUSH2 0x9B3 JUMP JUMPDEST POP POP SWAP1 SSTORE POP POP JUMP JUMPDEST PUSH1 0x60 PUSH1 0x0 DUP1 SLOAD SWAP1 PUSH2 0x100 EXP SWAP1 DIV PUSH20 0xFFFFFFFFFFFFFFFFFFFFFFFFFFFFFFFFFFFFFFFF AND PUSH20 0xFFFFFFFFFFFFFFFFFFFFFFFFFFFFFFFFFFFFFFFF AND CALLER PUSH20 0xFFFFFFFFFFFFFFFFFFFFFFFFFFFFFFFFFFFFFFFF AND EQ PUSH2 0x684 JUMPI PUSH1 0x40 MLOAD PUSH32 0x8C379A000000000000000000000000000000000000000000000000000000000 DUP2 MSTORE PUSH1 0x4 ADD PUSH2 0x67B SWAP1 PUSH2 0xFFA JUMP JUMPDEST PUSH1 0x40 MLOAD DUP1 SWAP2 SUB SWAP1 REVERT JUMPDEST PUSH1 0x2 DUP1 SLOAD DUP1 PUSH1 0x20 MUL PUSH1 0x20 ADD PUSH1 0x40 MLOAD SWAP1 DUP2 ADD PUSH1 0x40 MSTORE DUP1 SWAP3 SWAP2 SWAP1 DUP2 DUP2 MSTORE PUSH1 0x20 ADD PUSH1 0x0 SWAP1 JUMPDEST DUP3 DUP3 LT ISZERO PUSH2 0x806 JUMPI DUP4 DUP3 SWAP1 PUSH1 0x0 MSTORE PUSH1 0x20 PUSH1 0x0 KECCAK256 SWAP1 PUSH1 0x3 MUL ADD PUSH1 0x40 MLOAD DUP1 PUSH1 0x60 ADD PUSH1 0x40 MSTORE SWAP1 DUP2 PUSH1 0x0 DUP3 ADD SLOAD DUP2 MSTORE PUSH1 0x20 ADD PUSH1 0x1 DUP3 ADD DUP1 SLOAD PUSH2 0x6E3 SWAP1 PUSH2 0x1049 JUMP JUMPDEST DUP1 PUSH1 0x1F ADD PUSH1 0x20 DUP1 SWAP2 DIV MUL PUSH1 0x20 ADD PUSH1 0x40 MLOAD SWAP1 DUP2 ADD PUSH1 0x40 MSTORE DUP1 SWAP3 SWAP2 SWAP1 DUP2 DUP2 MSTORE PUSH1 0x20 ADD DUP3 DUP1 SLOAD PUSH2 0x70F SWAP1 PUSH2 0x1049 JUMP JUMPDEST DUP1 ISZERO PUSH2 0x75C JUMPI DUP1 PUSH1 0x1F LT PUSH2 0x731 JUMPI PUSH2 0x100 DUP1 DUP4 SLOAD DIV MUL DUP4 MSTORE SWAP2 PUSH1 0x20 ADD SWAP2 PUSH2 0x75C JUMP JUMPDEST DUP3 ADD SWAP2 SWAP1 PUSH1 0x0 MSTORE PUSH1 0x20 PUSH1 0x0 KECCAK256 SWAP1 JUMPDEST DUP2 SLOAD DUP2 MSTORE SWAP1 PUSH1 0x1 ADD SWAP1 PUSH1 0x20 ADD DUP1 DUP4 GT PUSH2 0x73F JUMPI DUP3 SWAP1 SUB PUSH1 0x1F AND DUP3 ADD SWAP2 JUMPDEST POP POP POP POP POP DUP2 MSTORE PUSH1 0x20 ADD PUSH1 0x2 DUP3 ADD DUP1 SLOAD PUSH2 0x775 SWAP1 PUSH2 0x1049 JUMP JUMPDEST DUP1 PUSH1 0x1F ADD PUSH1 0x20 DUP1 SWAP2 DIV MUL PUSH1 0x20 ADD PUSH1 0x40 MLOAD SWAP1 DUP2 ADD PUSH1 0x40 MSTORE DUP1 SWAP3 SWAP2 SWAP1 DUP2 DUP2 MSTORE PUSH1 0x20 ADD DUP3 DUP1 SLOAD PUSH2 0x7A1 SWAP1 PUSH2 0x1049 JUMP JUMPDEST DUP1 ISZERO PUSH2 0x7EE JUMPI DUP1 PUSH1 0x1F LT PUSH2 0x7C3 JUMPI PUSH2 0x100 DUP1 DUP4 SLOAD DIV MUL DUP4 MSTORE SWAP2 PUSH1 0x20 ADD SWAP2 PUSH2 0x7EE JUMP JUMPDEST DUP3 ADD SWAP2 SWAP1 PUSH1 0x0 MSTORE PUSH1 0x20 PUSH1 0x0 KECCAK256 SWAP1 JUMPDEST DUP2 SLOAD DUP2 MSTORE SWAP1 PUSH1 0x1 ADD SWAP1 PUSH1 0x20 ADD DUP1 DUP4 GT PUSH2 0x7D1 JUMPI DUP3 SWAP1 SUB PUSH1 0x1F AND DUP3 ADD SWAP2 JUMPDEST POP POP POP POP POP DUP2 MSTORE POP POP DUP2 MSTORE PUSH1 0x20 ADD SWAP1 PUSH1 0x1 ADD SWAP1 PUSH2 0x6A6 JUMP JUMPDEST POP POP POP POP SWAP1 POP SWAP1 JUMP JUMPDEST PUSH1 0x0 DUP1 SLOAD SWAP1 PUSH2 0x100 EXP SWAP1 DIV PUSH20 0xFFFFFFFFFFFFFFFFFFFFFFFFFFFFFFFFFFFFFFFF AND DUP2 JUMP JUMPDEST PUSH1 0x0 DUP1 SLOAD SWAP1 PUSH2 0x100 EXP SWAP1 DIV PUSH20 0xFFFFFFFFFFFFFFFFFFFFFFFFFFFFFFFFFFFFFFFF AND PUSH20 0xFFFFFFFFFFFFFFFFFFFFFFFFFFFFFFFFFFFFFFFF AND CALLER PUSH20 0xFFFFFFFFFFFFFFFFFFFFFFFFFFFFFFFFFFFFFFFF AND EQ PUSH2 0x8C1 JUMPI PUSH1 0x40 MLOAD PUSH32 0x8C379A000000000000000000000000000000000000000000000000000000000 DUP2 MSTORE PUSH1 0x4 ADD PUSH2 0x8B8 SWAP1 PUSH2 0xFFA JUMP JUMPDEST PUSH1 0x40 MLOAD DUP1 SWAP2 SUB SWAP1 REVERT JUMPDEST PUSH1 0x2 DUP1 SLOAD SWAP1 POP DUP4 GT ISZERO PUSH2 0x8D3 JUMPI PUSH1 0x0 DUP1 REVERT JUMPDEST PUSH1 0x0 JUMPDEST PUSH1 0x2 DUP1 SLOAD SWAP1 POP DUP2 LT ISZERO PUSH2 0x989 JUMPI DUP4 PUSH1 0x2 DUP3 DUP2 SLOAD DUP2 LT PUSH2 0x8F8 JUMPI PUSH2 0x8F7 PUSH2 0x1443 JUMP JUMPDEST JUMPDEST SWAP1 PUSH1 0x0 MSTORE PUSH1 0x20 PUSH1 0x0 KECCAK256 SWAP1 PUSH1 0x3 MUL ADD PUSH1 0x0 ADD SLOAD SUB PUSH2 0x976 JUMPI DUP3 PUSH1 0x2 DUP3 DUP2 SLOAD DUP2 LT PUSH2 0x924 JUMPI PUSH2 0x923 PUSH2 0x1443 JUMP JUMPDEST JUMPDEST SWAP1 PUSH1 0x0 MSTORE PUSH1 0x20 PUSH1 0x0 KECCAK256 SWAP1 PUSH1 0x3 MUL ADD PUSH1 0x1 ADD SWAP1 DUP2 PUSH2 0x941 SWAP2 SWAP1 PUSH2 0x1226 JUMP JUMPDEST POP DUP2 PUSH1 0x2 DUP3 DUP2 SLOAD DUP2 LT PUSH2 0x957 JUMPI PUSH2 0x956 PUSH2 0x1443 JUMP JUMPDEST JUMPDEST SWAP1 PUSH1 0x0 MSTORE PUSH1 0x20 PUSH1 0x0 KECCAK256 SWAP1 PUSH1 0x3 MUL ADD PUSH1 0x2 ADD SWAP1 DUP2 PUSH2 0x974 SWAP2 SWAP1 PUSH2 0x1226 JUMP JUMPDEST POP JUMPDEST DUP1 DUP1 PUSH2 0x981 SWAP1 PUSH2 0x1393 JUMP JUMPDEST SWAP2 POP POP PUSH2 0x8D6 JUMP JUMPDEST POP POP POP POP JUMP JUMPDEST PUSH1 0x1 DUP2 PUSH1 0x0 ADD PUSH1 0x0 DUP3 DUP3 SLOAD ADD SWAP3 POP POP DUP2 SWAP1 SSTORE POP POP JUMP JUMPDEST PUSH1 0x0 DUP2 PUSH1 0x0 ADD SLOAD SWAP1 POP SWAP2 SWAP1 POP JUMP JUMPDEST POP DUP1 SLOAD PUSH2 0x9BF SWAP1 PUSH2 0x1049 JUMP JUMPDEST PUSH1 0x0 DUP3 SSTORE DUP1 PUSH1 0x1F LT PUSH2 0x9D1 JUMPI POP PUSH2 0x9F0 JUMP JUMPDEST PUSH1 0x1F ADD PUSH1 0x20 SWAP1 DIV SWAP1 PUSH1 0x0 MSTORE PUSH1 0x20 PUSH1 0x0 KECCAK256 SWAP1 DUP2 ADD SWAP1 PUSH2 0x9EF SWAP2 SWAP1 PUSH2 0x9F3 JUMP JUMPDEST JUMPDEST POP JUMP JUMPDEST JUMPDEST DUP1 DUP3 GT ISZERO PUSH2 0xA0C JUMPI PUSH1 0x0 DUP2 PUSH1 0x0 SWAP1 SSTORE POP PUSH1 0x1 ADD PUSH2 0x9F4 JUMP JUMPDEST POP SWAP1 JUMP JUMPDEST PUSH1 0x0 PUSH1 0x40 MLOAD SWAP1 POP SWAP1 JUMP JUMPDEST PUSH1 0x0 DUP1 REVERT JUMPDEST PUSH1 0x0 DUP1 REVERT JUMPDEST PUSH1 0x0 DUP1 REVERT JUMPDEST PUSH1 0x0 DUP1 REVERT JUMPDEST PUSH1 0x0 PUSH1 0x1F NOT PUSH1 0x1F DUP4 ADD AND SWAP1 POP SWAP2 SWAP1 POP JUMP JUMPDEST PUSH32 0x4E487B7100000000000000000000000000000000000000000000000000000000 PUSH1 0x0 MSTORE PUSH1 0x41 PUSH1 0x4 MSTORE PUSH1 0x24 PUSH1 0x0 REVERT JUMPDEST PUSH2 0xA77 DUP3 PUSH2 0xA2E JUMP JUMPDEST DUP2 ADD DUP2 DUP2 LT PUSH8 0xFFFFFFFFFFFFFFFF DUP3 GT OR ISZERO PUSH2 0xA96 JUMPI PUSH2 0xA95 PUSH2 0xA3F JUMP JUMPDEST JUMPDEST DUP1 PUSH1 0x40 MSTORE POP POP POP JUMP JUMPDEST PUSH1 0x0 PUSH2 0xAA9 PUSH2 0xA10 JUMP JUMPDEST SWAP1 POP PUSH2 0xAB5 DUP3 DUP3 PUSH2 0xA6E JUMP JUMPDEST SWAP2 SWAP1 POP JUMP JUMPDEST PUSH1 0x0 PUSH8 0xFFFFFFFFFFFFFFFF DUP3 GT ISZERO PUSH2 0xAD5 JUMPI PUSH2 0xAD4 PUSH2 0xA3F JUMP JUMPDEST JUMPDEST PUSH2 0xADE DUP3 PUSH2 0xA2E JUMP JUMPDEST SWAP1 POP PUSH1 0x20 DUP2 ADD SWAP1 POP SWAP2 SWAP1 POP JUMP JUMPDEST DUP3 DUP2 DUP4 CALLDATACOPY PUSH1 0x0 DUP4 DUP4 ADD MSTORE POP POP POP JUMP JUMPDEST PUSH1 0x0 PUSH2 0xB0D PUSH2 0xB08 DUP5 PUSH2 0xABA JUMP JUMPDEST PUSH2 0xA9F JUMP JUMPDEST SWAP1 POP DUP3 DUP2 MSTORE PUSH1 0x20 DUP2 ADD DUP5 DUP5 DUP5 ADD GT ISZERO PUSH2 0xB29 JUMPI PUSH2 0xB28 PUSH2 0xA29 JUMP JUMPDEST JUMPDEST PUSH2 0xB34 DUP5 DUP3 DUP6 PUSH2 0xAEB JUMP JUMPDEST POP SWAP4 SWAP3 POP POP POP JUMP JUMPDEST PUSH1 0x0 DUP3 PUSH1 0x1F DUP4 ADD SLT PUSH2 0xB51 JUMPI PUSH2 0xB50 PUSH2 0xA24 JUMP JUMPDEST JUMPDEST DUP2 CALLDATALOAD PUSH2 0xB61 DUP5 DUP3 PUSH1 0x20 DUP7 ADD PUSH2 0xAFA JUMP JUMPDEST SWAP2 POP POP SWAP3 SWAP2 POP POP JUMP JUMPDEST PUSH1 0x0 DUP1 PUSH1 0x40 DUP4 DUP6 SUB SLT ISZERO PUSH2 0xB81 JUMPI PUSH2 0xB80 PUSH2 0xA1A JUMP JUMPDEST JUMPDEST PUSH1 0x0 DUP4 ADD CALLDATALOAD PUSH8 0xFFFFFFFFFFFFFFFF DUP2 GT ISZERO PUSH2 0xB9F JUMPI PUSH2 0xB9E PUSH2 0xA1F JUMP JUMPDEST JUMPDEST PUSH2 0xBAB DUP6 DUP3 DUP7 ADD PUSH2 0xB3C JUMP JUMPDEST SWAP3 POP POP PUSH1 0x20 DUP4 ADD CALLDATALOAD PUSH8 0xFFFFFFFFFFFFFFFF DUP2 GT ISZERO PUSH2 0xBCC JUMPI PUSH2 0xBCB PUSH2 0xA1F JUMP JUMPDEST JUMPDEST PUSH2 0xBD8 DUP6 DUP3 DUP7 ADD PUSH2 0xB3C JUMP JUMPDEST SWAP2 POP POP SWAP3 POP SWAP3 SWAP1 POP JUMP JUMPDEST PUSH1 0x0 DUP2 SWAP1 POP SWAP2 SWAP1 POP JUMP JUMPDEST PUSH2 0xBF5 DUP2 PUSH2 0xBE2 JUMP JUMPDEST DUP2 EQ PUSH2 0xC00 JUMPI PUSH1 0x0 DUP1 REVERT JUMPDEST POP JUMP JUMPDEST PUSH1 0x0 DUP2 CALLDATALOAD SWAP1 POP PUSH2 0xC12 DUP2 PUSH2 0xBEC JUMP JUMPDEST SWAP3 SWAP2 POP POP JUMP JUMPDEST PUSH1 0x0 PUSH1 0x20 DUP3 DUP5 SUB SLT ISZERO PUSH2 0xC2E JUMPI PUSH2 0xC2D PUSH2 0xA1A JUMP JUMPDEST JUMPDEST PUSH1 0x0 PUSH2 0xC3C DUP5 DUP3 DUP6 ADD PUSH2 0xC03 JUMP JUMPDEST SWAP2 POP POP SWAP3 SWAP2 POP POP JUMP JUMPDEST PUSH2 0xC4E DUP2 PUSH2 0xBE2 JUMP JUMPDEST DUP3 MSTORE POP POP JUMP JUMPDEST PUSH1 0x0 DUP2 MLOAD SWAP1 POP SWAP2 SWAP1 POP JUMP JUMPDEST PUSH1 0x0 DUP3 DUP3 MSTORE PUSH1 0x20 DUP3 ADD SWAP1 POP SWAP3 SWAP2 POP POP JUMP JUMPDEST PUSH1 0x0 JUMPDEST DUP4 DUP2 LT ISZERO PUSH2 0xC8E JUMPI DUP1 DUP3 ADD MLOAD DUP2 DUP5 ADD MSTORE PUSH1 0x20 DUP2 ADD SWAP1 POP PUSH2 0xC73 JUMP JUMPDEST PUSH1 0x0 DUP5 DUP5 ADD MSTORE POP POP POP POP JUMP JUMPDEST PUSH1 0x0 PUSH2 0xCA5 DUP3 PUSH2 0xC54 JUMP JUMPDEST PUSH2 0xCAF DUP2 DUP6 PUSH2 0xC5F JUMP JUMPDEST SWAP4 POP PUSH2 0xCBF DUP2 DUP6 PUSH1 0x20 DUP7 ADD PUSH2 0xC70 JUMP JUMPDEST PUSH2 0xCC8 DUP2 PUSH2 0xA2E JUMP JUMPDEST DUP5 ADD SWAP2 POP POP SWAP3 SWAP2 POP POP JUMP JUMPDEST PUSH1 0x0 PUSH1 0x60 DUP3 ADD SWAP1 POP PUSH2 0xCE8 PUSH1 0x0 DUP4 ADD DUP7 PUSH2 0xC45 JUMP JUMPDEST DUP2 DUP2 SUB PUSH1 0x20 DUP4 ADD MSTORE PUSH2 0xCFA DUP2 DUP6 PUSH2 0xC9A JUMP JUMPDEST SWAP1 POP DUP2 DUP2 SUB PUSH1 0x40 DUP4 ADD MSTORE PUSH2 0xD0E DUP2 DUP5 PUSH2 0xC9A JUMP JUMPDEST SWAP1 POP SWAP5 SWAP4 POP POP POP POP JUMP JUMPDEST PUSH1 0x0 PUSH1 0x20 DUP3 ADD SWAP1 POP PUSH2 0xD2D PUSH1 0x0 DUP4 ADD DUP5 PUSH2 0xC45 JUMP JUMPDEST SWAP3 SWAP2 POP POP JUMP JUMPDEST PUSH1 0x0 DUP2 MLOAD SWAP1 POP SWAP2 SWAP1 POP JUMP JUMPDEST PUSH1 0x0 DUP3 DUP3 MSTORE PUSH1 0x20 DUP3 ADD SWAP1 POP SWAP3 SWAP2 POP POP JUMP JUMPDEST PUSH1 0x0 DUP2 SWAP1 POP PUSH1 0x20 DUP3 ADD SWAP1 POP SWAP2 SWAP1 POP JUMP JUMPDEST PUSH2 0xD68 DUP2 PUSH2 0xBE2 JUMP JUMPDEST DUP3 MSTORE POP POP JUMP JUMPDEST PUSH1 0x0 DUP3 DUP3 MSTORE PUSH1 0x20 DUP3 ADD SWAP1 POP SWAP3 SWAP2 POP POP JUMP JUMPDEST PUSH1 0x0 PUSH2 0xD8A DUP3 PUSH2 0xC54 JUMP JUMPDEST PUSH2 0xD94 DUP2 DUP6 PUSH2 0xD6E JUMP JUMPDEST SWAP4 POP PUSH2 0xDA4 DUP2 DUP6 PUSH1 0x20 DUP7 ADD PUSH2 0xC70 JUMP JUMPDEST PUSH2 0xDAD DUP2 PUSH2 0xA2E JUMP JUMPDEST DUP5 ADD SWAP2 POP POP SWAP3 SWAP2 POP POP JUMP JUMPDEST PUSH1 0x0 PUSH1 0x60 DUP4 ADD PUSH1 0x0 DUP4 ADD MLOAD PUSH2 0xDD0 PUSH1 0x0 DUP7 ADD DUP3 PUSH2 0xD5F JUMP JUMPDEST POP PUSH1 0x20 DUP4 ADD MLOAD DUP5 DUP3 SUB PUSH1 0x20 DUP7 ADD MSTORE PUSH2 0xDE8 DUP3 DUP3 PUSH2 0xD7F JUMP JUMPDEST SWAP2 POP POP PUSH1 0x40 DUP4 ADD MLOAD DUP5 DUP3 SUB PUSH1 0x40 DUP7 ADD MSTORE PUSH2 0xE02 DUP3 DUP3 PUSH2 0xD7F JUMP JUMPDEST SWAP2 POP POP DUP1 SWAP2 POP POP SWAP3 SWAP2 POP POP JUMP JUMPDEST PUSH1 0x0 PUSH2 0xE1B DUP4 DUP4 PUSH2 0xDB8 JUMP JUMPDEST SWAP1 POP SWAP3 SWAP2 POP POP JUMP JUMPDEST PUSH1 0x0 PUSH1 0x20 DUP3 ADD SWAP1 POP SWAP2 SWAP1 POP JUMP JUMPDEST PUSH1 0x0 PUSH2 0xE3B DUP3 PUSH2 0xD33 JUMP JUMPDEST PUSH2 0xE45 DUP2 DUP6 PUSH2 0xD3E JUMP JUMPDEST SWAP4 POP DUP4 PUSH1 0x20 DUP3 MUL DUP6 ADD PUSH2 0xE57 DUP6 PUSH2 0xD4F JUMP JUMPDEST DUP1 PUSH1 0x0 JUMPDEST DUP6 DUP2 LT ISZERO PUSH2 0xE93 JUMPI DUP5 DUP5 SUB DUP10 MSTORE DUP2 MLOAD PUSH2 0xE74 DUP6 DUP3 PUSH2 0xE0F JUMP JUMPDEST SWAP5 POP PUSH2 0xE7F DUP4 PUSH2 0xE23 JUMP JUMPDEST SWAP3 POP PUSH1 0x20 DUP11 ADD SWAP10 POP POP PUSH1 0x1 DUP2 ADD SWAP1 POP PUSH2 0xE5B JUMP JUMPDEST POP DUP3 SWAP8 POP DUP8 SWAP6 POP POP POP POP POP POP SWAP3 SWAP2 POP POP JUMP JUMPDEST PUSH1 0x0 PUSH1 0x20 DUP3 ADD SWAP1 POP DUP2 DUP2 SUB PUSH1 0x0 DUP4 ADD MSTORE PUSH2 0xEBF DUP2 DUP5 PUSH2 0xE30 JUMP JUMPDEST SWAP1 POP SWAP3 SWAP2 POP POP JUMP JUMPDEST PUSH1 0x0 PUSH20 0xFFFFFFFFFFFFFFFFFFFFFFFFFFFFFFFFFFFFFFFF DUP3 AND SWAP1 POP SWAP2 SWAP1 POP JUMP JUMPDEST PUSH1 0x0 PUSH2 0xEF2 DUP3 PUSH2 0xEC7 JUMP JUMPDEST SWAP1 POP SWAP2 SWAP1 POP JUMP JUMPDEST PUSH2 0xF02 DUP2 PUSH2 0xEE7 JUMP JUMPDEST DUP3 MSTORE POP POP JUMP JUMPDEST PUSH1 0x0 PUSH1 0x20 DUP3 ADD SWAP1 POP PUSH2 0xF1D PUSH1 0x0 DUP4 ADD DUP5 PUSH2 0xEF9 JUMP JUMPDEST SWAP3 SWAP2 POP POP JUMP JUMPDEST PUSH1 0x0 DUP1 PUSH1 0x0 PUSH1 0x60 DUP5 DUP7 SUB SLT ISZERO PUSH2 0xF3C JUMPI PUSH2 0xF3B PUSH2 0xA1A JUMP JUMPDEST JUMPDEST PUSH1 0x0 PUSH2 0xF4A DUP7 DUP3 DUP8 ADD PUSH2 0xC03 JUMP JUMPDEST SWAP4 POP POP PUSH1 0x20 DUP5 ADD CALLDATALOAD PUSH8 0xFFFFFFFFFFFFFFFF DUP2 GT ISZERO PUSH2 0xF6B JUMPI PUSH2 0xF6A PUSH2 0xA1F JUMP JUMPDEST JUMPDEST PUSH2 0xF77 DUP7 DUP3 DUP8 ADD PUSH2 0xB3C JUMP JUMPDEST SWAP3 POP POP PUSH1 0x40 DUP5 ADD CALLDATALOAD PUSH8 0xFFFFFFFFFFFFFFFF DUP2 GT ISZERO PUSH2 0xF98 JUMPI PUSH2 0xF97 PUSH2 0xA1F JUMP JUMPDEST JUMPDEST PUSH2 0xFA4 DUP7 DUP3 DUP8 ADD PUSH2 0xB3C JUMP JUMPDEST SWAP2 POP POP SWAP3 POP SWAP3 POP SWAP3 JUMP JUMPDEST PUSH32 0x4F776E6572207265717569726564000000000000000000000000000000000000 PUSH1 0x0 DUP3 ADD MSTORE POP JUMP JUMPDEST PUSH1 0x0 PUSH2 0xFE4 PUSH1 0xE DUP4 PUSH2 0xC5F JUMP JUMPDEST SWAP2 POP PUSH2 0xFEF DUP3 PUSH2 0xFAE JUMP JUMPDEST PUSH1 0x20 DUP3 ADD SWAP1 POP SWAP2 SWAP1 POP JUMP JUMPDEST PUSH1 0x0 PUSH1 0x20 DUP3 ADD SWAP1 POP DUP2 DUP2 SUB PUSH1 0x0 DUP4 ADD MSTORE PUSH2 0x1013 DUP2 PUSH2 0xFD7 JUMP JUMPDEST SWAP1 POP SWAP2 SWAP1 POP JUMP JUMPDEST PUSH32 0x4E487B7100000000000000000000000000000000000000000000000000000000 PUSH1 0x0 MSTORE PUSH1 0x22 PUSH1 0x4 MSTORE PUSH1 0x24 PUSH1 0x0 REVERT JUMPDEST PUSH1 0x0 PUSH1 0x2 DUP3 DIV SWAP1 POP PUSH1 0x1 DUP3 AND DUP1 PUSH2 0x1061 JUMPI PUSH1 0x7F DUP3 AND SWAP2 POP JUMPDEST PUSH1 0x20 DUP3 LT DUP2 SUB PUSH2 0x1074 JUMPI PUSH2 0x1073 PUSH2 0x101A JUMP JUMPDEST JUMPDEST POP SWAP2 SWAP1 POP JUMP JUMPDEST PUSH1 0x0 DUP2 SWAP1 POP DUP2 PUSH1 0x0 MSTORE PUSH1 0x20 PUSH1 0x0 KECCAK256 SWAP1 POP SWAP2 SWAP1 POP JUMP JUMPDEST PUSH1 0x0 PUSH1 0x20 PUSH1 0x1F DUP4 ADD DIV SWAP1 POP SWAP2 SWAP1 POP JUMP JUMPDEST PUSH1 0x0 DUP3 DUP3 SHL SWAP1 POP SWAP3 SWAP2 POP POP JUMP JUMPDEST PUSH1 0x0 PUSH1 0x8 DUP4 MUL PUSH2 0x10DC PUSH32 0xFFFFFFFFFFFFFFFFFFFFFFFFFFFFFFFFFFFFFFFFFFFFFFFFFFFFFFFFFFFFFFFF DUP3 PUSH2 0x109F JUMP JUMPDEST PUSH2 0x10E6 DUP7 DUP4 PUSH2 0x109F JUMP JUMPDEST SWAP6 POP DUP1 NOT DUP5 AND SWAP4 POP DUP1 DUP7 AND DUP5 OR SWAP3 POP POP POP SWAP4 SWAP3 POP POP POP JUMP JUMPDEST PUSH1 0x0 DUP2 SWAP1 POP SWAP2 SWAP1 POP JUMP JUMPDEST PUSH1 0x0 PUSH2 0x1123 PUSH2 0x111E PUSH2 0x1119 DUP5 PUSH2 0xBE2 JUMP JUMPDEST PUSH2 0x10FE JUMP JUMPDEST PUSH2 0xBE2 JUMP JUMPDEST SWAP1 POP SWAP2 SWAP1 POP JUMP JUMPDEST PUSH1 0x0 DUP2 SWAP1 POP SWAP2 SWAP1 POP JUMP JUMPDEST PUSH2 0x113D DUP4 PUSH2 0x1108 JUMP JUMPDEST PUSH2 0x1151 PUSH2 0x1149 DUP3 PUSH2 0x112A JUMP JUMPDEST DUP5 DUP5 SLOAD PUSH2 0x10AC JUMP JUMPDEST DUP3 SSTORE POP POP POP POP JUMP JUMPDEST PUSH1 0x0 SWAP1 JUMP JUMPDEST PUSH2 0x1166 PUSH2 0x1159 JUMP JUMPDEST PUSH2 0x1171 DUP2 DUP5 DUP5 PUSH2 0x1134 JUMP JUMPDEST POP POP POP JUMP JUMPDEST JUMPDEST DUP2 DUP2 LT ISZERO PUSH2 0x1195 JUMPI PUSH2 0x118A PUSH1 0x0 DUP3 PUSH2 0x115E JUMP JUMPDEST PUSH1 0x1 DUP2 ADD SWAP1 POP PUSH2 0x1177 JUMP JUMPDEST POP POP JUMP JUMPDEST PUSH1 0x1F DUP3 GT ISZERO PUSH2 0x11DA JUMPI PUSH2 0x11AB DUP2 PUSH2 0x107A JUMP JUMPDEST PUSH2 0x11B4 DUP5 PUSH2 0x108F JUMP JUMPDEST DUP2 ADD PUSH1 0x20 DUP6 LT ISZERO PUSH2 0x11C3 JUMPI DUP2 SWAP1 POP JUMPDEST PUSH2 0x11D7 PUSH2 0x11CF DUP6 PUSH2 0x108F JUMP JUMPDEST DUP4 ADD DUP3 PUSH2 0x1176 JUMP JUMPDEST POP POP JUMPDEST POP POP POP JUMP JUMPDEST PUSH1 0x0 DUP3 DUP3 SHR SWAP1 POP SWAP3 SWAP2 POP POP JUMP JUMPDEST PUSH1 0x0 PUSH2 0x11FD PUSH1 0x0 NOT DUP5 PUSH1 0x8 MUL PUSH2 0x11DF JUMP JUMPDEST NOT DUP1 DUP4 AND SWAP2 POP POP SWAP3 SWAP2 POP POP JUMP JUMPDEST PUSH1 0x0 PUSH2 0x1216 DUP4 DUP4 PUSH2 0x11EC JUMP JUMPDEST SWAP2 POP DUP3 PUSH1 0x2 MUL DUP3 OR SWAP1 POP SWAP3 SWAP2 POP POP JUMP JUMPDEST PUSH2 0x122F DUP3 PUSH2 0xC54 JUMP JUMPDEST PUSH8 0xFFFFFFFFFFFFFFFF DUP2 GT ISZERO PUSH2 0x1248 JUMPI PUSH2 0x1247 PUSH2 0xA3F JUMP JUMPDEST JUMPDEST PUSH2 0x1252 DUP3 SLOAD PUSH2 0x1049 JUMP JUMPDEST PUSH2 0x125D DUP3 DUP3 DUP6 PUSH2 0x1199 JUMP JUMPDEST PUSH1 0x0 PUSH1 0x20 SWAP1 POP PUSH1 0x1F DUP4 GT PUSH1 0x1 DUP2 EQ PUSH2 0x1290 JUMPI PUSH1 0x0 DUP5 ISZERO PUSH2 0x127E JUMPI DUP3 DUP8 ADD MLOAD SWAP1 POP JUMPDEST PUSH2 0x1288 DUP6 DUP3 PUSH2 0x120A JUMP JUMPDEST DUP7 SSTORE POP PUSH2 0x12F0 JUMP JUMPDEST PUSH1 0x1F NOT DUP5 AND PUSH2 0x129E DUP7 PUSH2 0x107A JUMP JUMPDEST PUSH1 0x0 JUMPDEST DUP3 DUP2 LT ISZERO PUSH2 0x12C6 JUMPI DUP5 DUP10 ADD MLOAD DUP3 SSTORE PUSH1 0x1 DUP3 ADD SWAP2 POP PUSH1 0x20 DUP6 ADD SWAP5 POP PUSH1 0x20 DUP2 ADD SWAP1 POP PUSH2 0x12A1 JUMP JUMPDEST DUP7 DUP4 LT ISZERO PUSH2 0x12E3 JUMPI DUP5 DUP10 ADD MLOAD PUSH2 0x12DF PUSH1 0x1F DUP10 AND DUP3 PUSH2 0x11EC JUMP JUMPDEST DUP4 SSTORE POP JUMPDEST PUSH1 0x1 PUSH1 0x2 DUP9 MUL ADD DUP9 SSTORE POP POP POP JUMPDEST POP POP POP POP POP POP JUMP JUMPDEST PUSH32 0x4E6F207375636820656C656D656E742063616E20657869737400000000000000 PUSH1 0x0 DUP3 ADD MSTORE POP JUMP JUMPDEST PUSH1 0x0 PUSH2 0x132E PUSH1 0x19 DUP4 PUSH2 0xC5F JUMP JUMPDEST SWAP2 POP PUSH2 0x1339 DUP3 PUSH2 0x12F8 JUMP JUMPDEST PUSH1 0x20 DUP3 ADD SWAP1 POP SWAP2 SWAP1 POP JUMP JUMPDEST PUSH1 0x0 PUSH1 0x20 DUP3 ADD SWAP1 POP DUP2 DUP2 SUB PUSH1 0x0 DUP4 ADD MSTORE PUSH2 0x135D DUP2 PUSH2 0x1321 JUMP JUMPDEST SWAP1 POP SWAP2 SWAP1 POP JUMP JUMPDEST PUSH32 0x4E487B7100000000000000000000000000000000000000000000000000000000 PUSH1 0x0 MSTORE PUSH1 0x11 PUSH1 0x4 MSTORE PUSH1 0x24 PUSH1 0x0 REVERT JUMPDEST PUSH1 0x0 PUSH2 0x139E DUP3 PUSH2 0xBE2 JUMP JUMPDEST SWAP2 POP PUSH32 0xFFFFFFFFFFFFFFFFFFFFFFFFFFFFFFFFFFFFFFFFFFFFFFFFFFFFFFFFFFFFFFFF DUP3 SUB PUSH2 0x13D0 JUMPI PUSH2 0x13CF PUSH2 0x1364 JUMP JUMPDEST JUMPDEST PUSH1 0x1 DUP3 ADD SWAP1 POP SWAP2 SWAP1 POP JUMP JUMPDEST PUSH1 0x0 PUSH2 0x13E6 DUP3 PUSH2 0xBE2 JUMP JUMPDEST SWAP2 POP PUSH2 0x13F1 DUP4 PUSH2 0xBE2 JUMP JUMPDEST SWAP3 POP DUP3 DUP3 SUB SWAP1 POP DUP2 DUP2 GT ISZERO PUSH2 0x1409 JUMPI PUSH2 0x1408 PUSH2 0x1364 JUMP JUMPDEST JUMPDEST SWAP3 SWAP2 POP POP JUMP JUMPDEST PUSH1 0x0 PUSH2 0x141A DUP3 PUSH2 0xBE2 JUMP JUMPDEST SWAP2 POP PUSH2 0x1425 DUP4 PUSH2 0xBE2 JUMP JUMPDEST SWAP3 POP DUP3 DUP3 ADD SWAP1 POP DUP1 DUP3 GT ISZERO PUSH2 0x143D JUMPI PUSH2 0x143C PUSH2 0x1364 JUMP JUMPDEST JUMPDEST SWAP3 SWAP2 POP POP JUMP JUMPDEST PUSH32 0x4E487B7100000000000000000000000000000000000000000000000000000000 PUSH1 0x0 MSTORE PUSH1 0x32 PUSH1 0x4 MSTORE PUSH1 0x24 PUSH1 0x0 REVERT JUMPDEST PUSH1 0x0 DUP2 SLOAD SWAP1 POP PUSH2 0x1481 DUP2 PUSH2 0x1049 JUMP JUMPDEST SWAP1 POP SWAP2 SWAP1 POP JUMP JUMPDEST DUP2 DUP2 SUB PUSH2 0x1496 JUMPI POP POP PUSH2 0x156E JUMP JUMPDEST PUSH2 0x149F DUP3 PUSH2 0x1472 JUMP JUMPDEST PUSH8 0xFFFFFFFFFFFFFFFF DUP2 GT ISZERO PUSH2 0x14B8 JUMPI PUSH2 0x14B7 PUSH2 0xA3F JUMP JUMPDEST JUMPDEST PUSH2 0x14C2 DUP3 SLOAD PUSH2 0x1049 JUMP JUMPDEST PUSH2 0x14CD DUP3 DUP3 DUP6 PUSH2 0x1199 JUMP JUMPDEST PUSH1 0x0 PUSH1 0x1F DUP4 GT PUSH1 0x1 DUP2 EQ PUSH2 0x14FC JUMPI PUSH1 0x0 DUP5 ISZERO PUSH2 0x14EA JUMPI DUP3 DUP8 ADD SLOAD SWAP1 POP JUMPDEST PUSH2 0x14F4 DUP6 DUP3 PUSH2 0x120A JUMP JUMPDEST DUP7 SSTORE POP PUSH2 0x1567 JUMP JUMPDEST PUSH1 0x1F NOT DUP5 AND PUSH2 0x150A DUP8 PUSH2 0x107A JUMP JUMPDEST SWAP7 POP PUSH2 0x1515 DUP7 PUSH2 0x107A JUMP JUMPDEST PUSH1 0x0 JUMPDEST DUP3 DUP2 LT ISZERO PUSH2 0x153D JUMPI DUP5 DUP10 ADD SLOAD DUP3 SSTORE PUSH1 0x1 DUP3 ADD SWAP2 POP PUSH1 0x1 DUP6 ADD SWAP5 POP PUSH1 0x20 DUP2 ADD SWAP1 POP PUSH2 0x1518 JUMP JUMPDEST DUP7 DUP4 LT ISZERO PUSH2 0x155A JUMPI DUP5 DUP10 ADD SLOAD PUSH2 0x1556 PUSH1 0x1F DUP10 AND DUP3 PUSH2 0x11EC JUMP JUMPDEST DUP4 SSTORE POP JUMPDEST PUSH1 0x1 PUSH1 0x2 DUP9 MUL ADD DUP9 SSTORE POP POP POP JUMPDEST POP POP POP POP POP POP JUMPDEST JUMP JUMPDEST PUSH32 0x4E487B7100000000000000000000000000000000000000000000000000000000 PUSH1 0x0 MSTORE PUSH1 0x31 PUSH1 0x4 MSTORE PUSH1 0x24 PUSH1 0x0 REVERT INVALID LOG2 PUSH5 0x6970667358 0x22 SLT KECCAK256 ADDMOD 0x5D 0xD6 PUSH7 0x8CE12E4A806D83 PUSH5 0x2529832518 DUP2 DUP11 DIV STOP REVERT SWAP4 0x2E 0x4E 0xB6 PUSH26 0x2CAEA1942C64736F6C6343000811003300000000000000000000 "},"methodIdentifiers":{"_ids()":"479e46a2","array(uint256)":"38d94193","create(string,string)":"198e2b8a","deleteData(uint256)":"4fe8b4c1","get()":"6d4ce63c","owner()":"8da5cb5b","update(uint256,string,string)":"f95e0a54"}}}}}