{
  "_format": "hh-sol-artifact-1",
  "contractName": "CRUD",
  "sourceName": "contracts/Crud.sol",
  "abi": [
    {
      "inputs": [],
      "stateMutability": "nonpayable",
      "type": "constructor"
    },
    {
      "inputs": [],
      "name": "_ids",
      "outputs": [
        {
          "internalType": "uint256",
          "name": "_value",
          "type": "uint256"
        }
      ],
      "stateMutability": "view",
      "type": "function"
    },
    {
      "inputs": [
        {
          "internalType": "uint256",
          "name": "",
          "type": "uint256"
        }
      ],
      "name": "array",
      "outputs": [
        {
          "internalType": "uint256",
          "name": "id",
          "type": "uint256"
        },
        {
          "internalType": "string",
          "name": "name",
          "type": "string"
        },
        {
          "internalType": "string",
          "name": "email",
          "type": "string"
        }
      ],
      "stateMutability": "view",
      "type": "function"
    },
    {
      "inputs": [
        {
          "internalType": "string",
          "name": "_name",
          "type": "string"
        },
        {
          "internalType": "string",
          "name": "_email",
          "type": "string"
        }
      ],
      "name": "create",
      "outputs": [],
      "stateMutability": "nonpayable",
      "type": "function"
    },
    {
      "inputs": [
        {
          "internalType": "uint256",
          "name": "_id",
          "type": "uint256"
        }
      ],
      "name": "deleteData",
      "outputs": [],
      "stateMutability": "nonpayable",
      "type": "function"
    },
    {
      "inputs": [],
      "name": "get",
      "outputs": [
        {
          "components": [
            {
              "internalType": "uint256",
              "name": "id",
              "type": "uint256"
            },
            {
              "internalType": "string",
              "name": "name",
              "type": "string"
            },
            {
              "internalType": "string",
              "name": "email",
              "type": "string"
            }
          ],
          "internalType": "struct CRUD.Data[]",
          "name": "",
          "type": "tuple[]"
        }
      ],
      "stateMutability": "view",
      "type": "function"
    },
    {
      "inputs": [],
      "name": "owner",
      "outputs": [
        {
          "internalType": "address",
          "name": "",
          "type": "address"
        }
      ],
      "stateMutability": "view",
      "type": "function"
    },
    {
      "inputs": [
        {
          "internalType": "uint256",
          "name": "_id",
          "type": "uint256"
        },
        {
          "internalType": "string",
          "name": "_name",
          "type": "string"
        },
        {
          "internalType": "string",
          "name": "_email",
          "type": "string"
        }
      ],
      "name": "update",
      "outputs": [],
      "stateMutability": "nonpayable",
      "type": "function"
    }
  ],
  "bytecode": "0x608060405234801561001057600080fd5b50336000806101000a81548173ffffffffffffffffffffffffffffffffffffffff021916908373ffffffffffffffffffffffffffffffffffffffff1602179055506115d5806100606000396000f3fe608060405234801561001057600080fd5b506004361061007d5760003560e01c80634fe8b4c11161005b5780634fe8b4c1146100ee5780636d4ce63c1461010a5780638da5cb5b14610128578063f95e0a54146101465761007d565b8063198e2b8a1461008257806338d941931461009e578063479e46a2146100d0575b600080fd5b61009c60048036038101906100979190610b6a565b610162565b005b6100b860048036038101906100b39190610c18565b61028b565b6040516100c793929190610cd3565b60405180910390f35b6100d86103d5565b6040516100e59190610d18565b60405180910390f35b61010860048036038101906101039190610c18565b6103e1565b005b6101126105f4565b60405161011f9190610ea5565b60405180910390f35b61013061080f565b60405161013d9190610f08565b60405180910390f35b610160600480360381019061015b9190610f23565b610833565b005b60008054906101000a900473ffffffffffffffffffffffffffffffffffffffff1673ffffffffffffffffffffffffffffffffffffffff163373ffffffffffffffffffffffffffffffffffffffff16146101f0576040517f08c379a00000000000000000000000000000000000000000000000000000000081526004016101e790610ffa565b60405180910390fd5b6101fa600161098f565b6000604051806060016040528061021160016109a5565b8152602001848152602001838152509050600281908060018154018082558091505060019003906000526020600020906003020160009091909190915060008201518160000155602082015181600101908161026d9190611226565b5060408201518160020190816102839190611226565b505050505050565b6002818154811061029b57600080fd5b90600052602060002090600302016000915090508060000154908060010180546102c490611049565b80601f01602080910402602001604051908101604052809291908181526020018280546102f090611049565b801561033d5780601f106103125761010080835404028352916020019161033d565b820191906000526020600020905b81548152906001019060200180831161032057829003601f168201915b50505050509080600201805461035290611049565b80601f016020809104026020016040519081016040528092919081815260200182805461037e90611049565b80156103cb5780601f106103a0576101008083540402835291602001916103cb565b820191906000526020600020905b8154815290600101906020018083116103ae57829003601f168201915b5050505050905083565b60018060000154905081565b60008054906101000a900473ffffffffffffffffffffffffffffffffffffffff1673ffffffffffffffffffffffffffffffffffffffff163373ffffffffffffffffffffffffffffffffffffffff161461046f576040517f08c379a000000000000000000000000000000000000000000000000000000000815260040161046690610ffa565b60405180910390fd5b6002805490508111156104b7576040517f08c379a00000000000000000000000000000000000000000000000000000000081526004016104ae90611344565b60405180910390fd5b600080600090505b6002805490508110156104e25780915080806104da90611393565b9150506104bf565b5060008190505b60016002805490506104fb91906113db565b81101561059c576002600182610511919061140f565b8154811061052257610521611443565b5b90600052602060002090600302016002828154811061054457610543611443565b5b906000526020600020906003020160008201548160000155600182018160010190816105709190611488565b50600282018160020190816105859190611488565b50905050808061059490611393565b9150506104e9565b5060028054806105af576105ae611570565b5b60019003818190600052602060002090600302016000808201600090556001820160006105dc91906109b3565b6002820160006105ec91906109b3565b505090555050565b606060008054906101000a900473ffffffffffffffffffffffffffffffffffffffff1673ffffffffffffffffffffffffffffffffffffffff163373ffffffffffffffffffffffffffffffffffffffff1614610684576040517f08c379a000000000000000000000000000000000000000000000000000000000815260040161067b90610ffa565b60405180910390fd5b6002805480602002602001604051908101604052809291908181526020016000905b828210156108065783829060005260206000209060030201604051806060016040529081600082015481526020016001820180546106e390611049565b80601f016020809104026020016040519081016040528092919081815260200182805461070f90611049565b801561075c5780601f106107315761010080835404028352916020019161075c565b820191906000526020600020905b81548152906001019060200180831161073f57829003601f168201915b5050505050815260200160028201805461077590611049565b80601f01602080910402602001604051908101604052809291908181526020018280546107a190611049565b80156107ee5780601f106107c3576101008083540402835291602001916107ee565b820191906000526020600020905b8154815290600101906020018083116107d157829003601f168201915b505050505081525050815260200190600101906106a6565b50505050905090565b60008054906101000a900473ffffffffffffffffffffffffffffffffffffffff1681565b60008054906101000a900473ffffffffffffffffffffffffffffffffffffffff1673ffffffffffffffffffffffffffffffffffffffff163373ffffffffffffffffffffffffffffffffffffffff16146108c1576040517f08c379a00000000000000000000000000000000000000000000000000000000081526004016108b890610ffa565b60405180910390fd5b6002805490508311156108d357600080fd5b60005b6002805490508110156109895783600282815481106108f8576108f7611443565b5b9060005260206000209060030201600001540361097657826002828154811061092457610923611443565b5b906000526020600020906003020160010190816109419190611226565b50816002828154811061095757610956611443565b5b906000526020600020906003020160020190816109749190611226565b505b808061098190611393565b9150506108d6565b50505050565b6001816000016000828254019250508190555050565b600081600001549050919050565b5080546109bf90611049565b6000825580601f106109d157506109f0565b601f0160209004906000526020600020908101906109ef91906109f3565b5b50565b5b80821115610a0c5760008160009055506001016109f4565b5090565b6000604051905090565b600080fd5b600080fd5b600080fd5b600080fd5b6000601f19601f8301169050919050565b7f4e487b7100000000000000000000000000000000000000000000000000000000600052604160045260246000fd5b610a7782610a2e565b810181811067ffffffffffffffff82111715610a9657610a95610a3f565b5b80604052505050565b6000610aa9610a10565b9050610ab58282610a6e565b919050565b600067ffffffffffffffff821115610ad557610ad4610a3f565b5b610ade82610a2e565b9050602081019050919050565b82818337600083830152505050565b6000610b0d610b0884610aba565b610a9f565b905082815260208101848484011115610b2957610b28610a29565b5b610b34848285610aeb565b509392505050565b600082601f830112610b5157610b50610a24565b5b8135610b61848260208601610afa565b91505092915050565b60008060408385031215610b8157610b80610a1a565b5b600083013567ffffffffffffffff811115610b9f57610b9e610a1f565b5b610bab85828601610b3c565b925050602083013567ffffffffffffffff811115610bcc57610bcb610a1f565b5b610bd885828601610b3c565b9150509250929050565b6000819050919050565b610bf581610be2565b8114610c0057600080fd5b50565b600081359050610c1281610bec565b92915050565b600060208284031215610c2e57610c2d610a1a565b5b6000610c3c84828501610c03565b91505092915050565b610c4e81610be2565b82525050565b600081519050919050565b600082825260208201905092915050565b60005b83811015610c8e578082015181840152602081019050610c73565b60008484015250505050565b6000610ca582610c54565b610caf8185610c5f565b9350610cbf818560208601610c70565b610cc881610a2e565b840191505092915050565b6000606082019050610ce86000830186610c45565b8181036020830152610cfa8185610c9a565b90508181036040830152610d0e8184610c9a565b9050949350505050565b6000602082019050610d2d6000830184610c45565b92915050565b600081519050919050565b600082825260208201905092915050565b6000819050602082019050919050565b610d6881610be2565b82525050565b600082825260208201905092915050565b6000610d8a82610c54565b610d948185610d6e565b9350610da4818560208601610c70565b610dad81610a2e565b840191505092915050565b6000606083016000830151610dd06000860182610d5f565b5060208301518482036020860152610de88282610d7f565b91505060408301518482036040860152610e028282610d7f565b9150508091505092915050565b6000610e1b8383610db8565b905092915050565b6000602082019050919050565b6000610e3b82610d33565b610e458185610d3e565b935083602082028501610e5785610d4f565b8060005b85811015610e935784840389528151610e748582610e0f565b9450610e7f83610e23565b925060208a01995050600181019050610e5b565b50829750879550505050505092915050565b60006020820190508181036000830152610ebf8184610e30565b905092915050565b600073ffffffffffffffffffffffffffffffffffffffff82169050919050565b6000610ef282610ec7565b9050919050565b610f0281610ee7565b82525050565b6000602082019050610f1d6000830184610ef9565b92915050565b600080600060608486031215610f3c57610f3b610a1a565b5b6000610f4a86828701610c03565b935050602084013567ffffffffffffffff811115610f6b57610f6a610a1f565b5b610f7786828701610b3c565b925050604084013567ffffffffffffffff811115610f9857610f97610a1f565b5b610fa486828701610b3c565b9150509250925092565b7f4f776e6572207265717569726564000000000000000000000000000000000000600082015250565b6000610fe4600e83610c5f565b9150610fef82610fae565b602082019050919050565b6000602082019050818103600083015261101381610fd7565b9050919050565b7f4e487b7100000000000000000000000000000000000000000000000000000000600052602260045260246000fd5b6000600282049050600182168061106157607f821691505b6020821081036110745761107361101a565b5b50919050565b60008190508160005260206000209050919050565b60006020601f8301049050919050565b600082821b905092915050565b6000600883026110dc7fffffffffffffffffffffffffffffffffffffffffffffffffffffffffffffffff8261109f565b6110e6868361109f565b95508019841693508086168417925050509392505050565b6000819050919050565b600061112361111e61111984610be2565b6110fe565b610be2565b9050919050565b6000819050919050565b61113d83611108565b6111516111498261112a565b8484546110ac565b825550505050565b600090565b611166611159565b611171818484611134565b505050565b5b818110156111955761118a60008261115e565b600181019050611177565b5050565b601f8211156111da576111ab8161107a565b6111b48461108f565b810160208510156111c3578190505b6111d76111cf8561108f565b830182611176565b50505b505050565b600082821c905092915050565b60006111fd600019846008026111df565b1980831691505092915050565b600061121683836111ec565b9150826002028217905092915050565b61122f82610c54565b67ffffffffffffffff81111561124857611247610a3f565b5b6112528254611049565b61125d828285611199565b600060209050601f831160018114611290576000841561127e578287015190505b611288858261120a565b8655506112f0565b601f19841661129e8661107a565b60005b828110156112c6578489015182556001820191506020850194506020810190506112a1565b868310156112e357848901516112df601f8916826111ec565b8355505b6001600288020188555050505b505050505050565b7f4e6f207375636820656c656d656e742063616e20657869737400000000000000600082015250565b600061132e601983610c5f565b9150611339826112f8565b602082019050919050565b6000602082019050818103600083015261135d81611321565b9050919050565b7f4e487b7100000000000000000000000000000000000000000000000000000000600052601160045260246000fd5b600061139e82610be2565b91507fffffffffffffffffffffffffffffffffffffffffffffffffffffffffffffffff82036113d0576113cf611364565b5b600182019050919050565b60006113e682610be2565b91506113f183610be2565b925082820390508181111561140957611408611364565b5b92915050565b600061141a82610be2565b915061142583610be2565b925082820190508082111561143d5761143c611364565b5b92915050565b7f4e487b7100000000000000000000000000000000000000000000000000000000600052603260045260246000fd5b60008154905061148181611049565b9050919050565b81810361149657505061156e565b61149f82611472565b67ffffffffffffffff8111156114b8576114b7610a3f565b5b6114c28254611049565b6114cd828285611199565b6000601f8311600181146114fc57600084156114ea578287015490505b6114f4858261120a565b865550611567565b601f19841661150a8761107a565b96506115158661107a565b60005b8281101561153d57848901548255600182019150600185019450602081019050611518565b8683101561155a5784890154611556601f8916826111ec565b8355505b6001600288020188555050505b5050505050505b565b7f4e487b7100000000000000000000000000000000000000000000000000000000600052603160045260246000fdfea2646970667358221220085dd6668ce12e4a806d83642529832518818a0400fd932e4eb6792caea1942c64736f6c63430008110033",
  "linkReferences": {},
  "deployedLinkReferences": {}
}